:020000040800F2
:100000009007002089010008751600081F110008DC
:1000100071160008CD0A0008FD220008000000004B
:100020000000000000000000000000009B0100082C
:100030005D0F0008000000009F010008A1010008FA
:10004000A3010008A3010008A3010008A301000800
:10005000A3010008A3010008A3010008A3010008F0
:10006000A3010008A3010008A3010008AD0B0008CC
:10007000A3010008A3010008110C0008310C0008BE
:10008000A3010008A3010008A3010008A3010008C0
:10009000A3010008A3010008A3010008A3010008B0
:1000A000A3010008A3010008A3010008A3010008A0
:1000B000A3010008A3010008A3010008A301000890
:1000C000A3010008A3010008A3010008A301000880
:1000D000A301000859200008A3010008A30100089B
:1000E000A3010008A3010008A301000800F002F822
:1000F00000F03AF80AA090E8000C82448344AAF188
:100100000107DA4501D100F02FF8AFF2090EBAE885
:100110000F0013F0010F18BFFB1A43F0010318473B
:10012000D8290000F8290000103A24BF78C878C107
:10013000FAD8520724BF30C830C144BF04680C60ED
:10014000704700000023002400250026103A28BF35
:1001500078C1FBD8520728BF30C148BF0B60704739
:100160001FB51FBD10B510BD00F031F81146FFF7E7
:10017000F7FF02F0F9F900F04FF803B4FFF7F2FFD0
:1001800003BC00F053F800000948804709480047C5
:10019000FEE7FEE7FEE7FEE7FEE7FEE7FEE7FEE737
:1001A000FEE7FEE704480549054A064B7047000094
:1001B0001D1E0008ED00000890010020900700209F
:1001C00090030020900300207047704770477546E9
:1001D00000F028F8AE4605006946534620F00700B7
:1001E000854618B020B5FFF7DDFFBDE820404FF091
:1001F00000064FF000074FF000084FF0000B21F011
:100200000701AC46ACE8C009ACE8C009ACE8C009DD
:10021000ACE8C0098D4670470446AFF30080204625
:10022000FFF7ABFF004870472C0100200149182060
:10023000ABBEFEE726000200704721B1826842F0A3
:100240000102826003E0826822F00102826070474E
:1002500021B1826842F48072826003E0826822F4F5
:1002600080728260704721B1826842F4801282609D
:1002700003E0826822F48012826070470146002009
:100280008A6802F004020AB1012000E000207047F1
:10029000014600208A6802F008020AB1012000E04D
:1002A0000020704730B502460020002350680F4CF4
:1002B00020400D790C6844EA052420435060906882
:1002C0000B4C2040D1E902542C434D7944EA4504BB
:1002D00020439060D06A20F470000C7C641EE4B26D
:1002E000234340EA0350D06230BD0000FFFEF0FF20
:1002F000FDF7F1FFF0B504460D4600200021092D61
:1003000011DDE068A5F10A0606EB4607072606FAA6
:1003100007F18843A5F10A0606EB460603FA06F143
:100320000843E0600CE0206905EB4507072606FA64
:1003300007F1884305EB450603FA06F108432061FF
:10034000072A0FDA606B561E06EB86071F2606FA91
:1003500007F18843561E06EB860605FA06F10843A8
:10036000606322E00D2A0FDA206BD61F06EB8607AA
:100370001F2606FA07F18843D61F06EB860605FA04
:1003800006F10843206310E0E06AA2F10D0606EBD7
:1003900086071F2606FA07F18843A2F10D0606EB31
:1003A000860605FA06F10843E062F0BD816841F077
:1003B000080181607047816841F0040181607047E5
:1003C0007CB50B49087802F033FA044608494878AE
:1003D00002F02EFA05460020009003460246214610
:1003E0000190284600F0A8F900F004F87CBD000058
:1003F0003600002000B589B02D480078012854D17E
:100400002C48006808B9012000E000202949086054
:10041000002005E02849095C01AA1154411CC8B21A
:100420002028F7DB9DF80400AA283BD19DF80500A1
:10043000AF2837D19DF80600122822D008DC012809
:100440000DD0022810D0102813D0112829D114E083
:1004500013281AD014281CD0152822D11DE09DF88D
:10046000080000F035FB1CE09DF8080000F034FBAC
:1004700017E001A800F004FA13E001A800F078FAF0
:100480000FE001A800F0ECFA0BE001A800F0EFFA91
:1004900007E001A800F0F2FA03E001A800F0F5FA85
:1004A00000BF00BF00200249087009B000BD000075
:1004B0004200002098812142C40000202DE9F04133
:1004C00006460F460024A046AA222146641C164870
:1004D00042542146641C4254EF222146641C42547B
:1004E00000222146641C42542146641C4654214685
:1004F000641C4754201F0C49C870002506E00A48B8
:10050000405D404400F0FF08681CC5B2A542F6DB20
:100510002046611CCCB2044901F800802146024803
:1005200000F0A2FCBDE8F081720000202DE9FC5F24
:1005300006460F4690469946DDF830B00024A246A4
:10054000AA222146641C7A4842542146641C425423
:1005500006F10F00C2B22146641C754842540022C5
:100560002146641C42547349384602F075F90090E4
:1005700002F00AF900B201909DF805202146641CA2
:100580006B4842549DF804202146641C425469493A
:10059000404602F061F9009002F0F6F800B20190D6
:1005A0009DF805202146641C614842549DF80420B2
:1005B0002046611CCCB25E490A545E49484602F0AE
:1005C0004BF9009002F0E0F800B201909DF8052090
:1005D0002046611CCCB256490A549DF8042020469E
:1005E000611CCCB252490A545249584602F034F9BF
:1005F000009002F0C9F800B201909DF80520204655
:10060000611CCCB24A490A549DF804202046611C62
:10061000CCB247490A5447490D9802F01DF90090A1
:1006200002F0B2F800B201909DF805202046611C4E
:10063000CCB23F490A549DF804202046611CCCB23C
:100640003B490A543B490E9802F006F9009002F02B
:100650009BF800B201909DF805202046611CCCB2A9
:1006600033490A549DF804202046611CCCB230491D
:100670000A5430490F9802F0EFF8009002F084F825
:1006800000B201909DF805202046611CCCB228499B
:100690000A549DF804202046611CCCB224490A5417
:1006A0002449109802F0D8F8009002F06DF800B2DA
:1006B00001909DF805202046611CCCB21C490A54CB
:1006C0009DF804202046611CCCB219490A541949EE
:1006D000119802F0C1F8009002F056F800B20190B3
:1006E0009DF805202046611CCCB211490A549DF8A2
:1006F00004202046611CCCB20D490A54201FC8704A
:10070000002506E00A48405D504400F0FF0A681CDE
:10071000C5B2A542F6DB2046611CCCB2044901F803
:1007200000A02146024800F09FFBBDE8FC9F0000AE
:100730007200002000007A442DE9FE4F81460D46EC
:1007400016461F46DDE90CAB002464207843019077
:10075000AA222146641C484842542146641C425443
:1007600001222146641C425400222146641C42544A
:100770004249484602F070F8009002F005F800B2D5
:1007800002909DF809202146641C3B4842549DF884
:1007900008202146641C42543849284602F05CF87F
:1007A000009001F0F1FF00B202909DF8092021466F
:1007B000641C314842549DF808202046611CCCB28C
:1007C0002D490A542D49304602F046F8009001F0B8
:1007D000DBFF00B202909DF809202046611CCCB2DC
:1007E00025490A549DF808202046611CCCB22249B4
:1007F0000A549DF807202046611CCCB21E490A54B9
:100800009DF806202046611CCCB21B490A549DF875
:1008100005202046611CCCB217490A549DF80420DB
:100820002046611CCCB214490A542046611CCCB24B
:10083000114901F800A02046611CCCB20E4901F814
:1008400000B0201FC8704FF00008002006E00A49E1
:10085000095C414401F0FF08411CC8B2A042F6DB2C
:100860002046611CCCB2044901F8008021460248B0
:1008700000F0FAFABDE8FE8F720000200000C842C6
:1008800070B504466179227941EA022001F0B8FF8F
:100890000546354901F0E0FF34490860E179A27965
:1008A00041EA022001F0ACFF05462F4901F0D4FFD8
:1008B0002E494860617A227A41EA022001F0A0FFC5
:1008C0000546294901F0C8FF28498860E17AA27AE3
:1008D00041EA022001F094FF0546234901F0BCFFE4
:1008E0002249C860617B227B41EA022001F088FF37
:1008F00005461D4901F0B0FF1C490861E17BA27B60
:1009000041EA022001F07CFF0546174901F0A4FFEF
:1009100016494861617C227C41EA022001F070FFA7
:100920000546114901F098FF10498861E17CA27CDD
:1009300041EA022001F064FF05460B4901F08CFFFB
:100940000A49C861617D227D41EA022001F058FF19
:100950000546054901F080FF04490862A17DA078A1
:10096000FFF7ACFD70BD00006F12833AE400002079
:1009700070B504466179227941EA022001F040FF16
:100980000546354901F068FF34490860E179A279EC
:1009900041EA022001F034FF05462F4901F05CFFD7
:1009A0002E494860617A227A41EA022001F028FF4C
:1009B0000546294901F050FF28498860E17AA27A6A
:1009C00041EA022001F01CFF0546234901F044FFE3
:1009D0002249C860617B227B41EA022001F010FFBE
:1009E00005461D4901F038FF1C490861E17BA27BE7
:1009F00041EA022001F004FF0546174901F02CFFEF
:100A000016494861617C227C41EA022001F0F8FE2F
:100A10000546114901F020FF10498861E17CA27C64
:100A200041EA022001F0ECFE05460B4901F014FFFB
:100A30000A49C861617D227D41EA022001F0E0FEA1
:100A40000546054901F008FF04490862A17DA07828
:100A5000FFF734FD70BD00006F12833A08010020DB
:100A600010B50446A17DA078FFF728FD10BD10B594
:100A70000446A17DA078FFF721FD10BD10B5044606
:100A8000A17DA078FFF71AFD10BD10B50446A17D29
:100A9000A078FFF713FD10BD08B50121082000F074
:100AA000FDFF8020ADF8000010208DF8030003202A
:100AB0008DF802006946044800F051FA802102488E
:100AC00000F029FB08BD0000000C014000BFFEE75C
:100AD00000BF00BF7047000010B586B00446012C6F
:100AE00037D11D48006A1C49C9691B4A92691A4BD3
:100AF0005B69CDE90232CDE9041017480069164957
:100B0000C968CDE900101448836842680168012073
:100B1000FFF70CFD022001F001FD1048006A0F49AB
:100B2000CA6989690D4B5B69CDE90231CDE90420C1
:100B30000A4800690949C968CDE900100748836877
:100B4000426801680220FFF7F1FC022001F0E6FC98
:100B500000BF00BF06B010BDE40000200801002067
:100B600010B50024002000F065FC0446012C05D1DE
:100B70000D484078401C0C49487006E0042C04D114
:100B800009480078401C0849087007484078052843
:100B900002D101200449487003480078042802D19A
:100BA00001200149087010BD3600002010B5022058
:100BB00000F01CF9012824D1124800F08DF91248E8
:100BC00000F0B0FA104800F04FFE0446FF2C12D19E
:100BD0000E488068C82806D20C488068401C0B4923
:100BE00088600020C86009488068C82806D10120B4
:100BF0000649C86002E0002004498860022000F035
:100C000031F810BD280000205C0000204C000020BE
:100C100010B54FF4005000F0E9F830B1002003495E
:100C200008704FF4805000F01DF810BD4300002004
:100C300010B54FF4003000F0D9F878B10021084821
:100C400000F01EF82021064800F044F94FF48030EF
:100C500000F008F80121024800F012F810BD000071
:100C60005800024000F0805111B10349086001E0D2
:100C7000024948607047000004040240000002403E
:100C800021B1026842F00102026004E002684FF6FE
:100C9000FE731A400260704701684FF6FE72114001
:100CA00001600021016041608160C1604B49884260
:100CB00008D14A490839496841F00F01474A083AC2
:100CC00051608AE045491431884208D143490839C6
:100CD000496841F0F001414A083A51607DE03F49DE
:100CE0002831884208D13D490839496841F470618A
:100CF0003A4A083A516070E038493C31884208D19C
:100D000036490839496841F47041344A083A51601B
:100D100063E032495031884208D130490839496886
:100D200041F470212D4A083A516056E02B49643154
:100D3000884208D129490839496841F47001274A95
:100D4000083A516049E025497831884208D1234961
:100D50000839496841F07061204A083A51603CE026
:100D60001F49884206D1011F096841F00F01021F87
:100D7000116032E01A491431884208D11849091F1C
:100D8000096841F0F001164A121F116025E014496C
:100D90002831884208D11249091F096841F470615D
:100DA0000F4A121F116018E00D493C31884208D1EA
:100DB0000B49091F096841F47041094A121F11606B
:100DC0000BE007495031884207D10549091F0968DE
:100DD00041F47021024A121F11607047080002405E
:100DE000080402400146486880B27047014600206E
:100DF000002201F0805313B1054B1A6801E0054B46
:100E00001A6802EA01030BB1012000E000207047DC
:100E100000040240000002401AB103680B43036063
:100E200002E003688B430360704710B5002202683C
:100E300047F6F0739A430C6A8B6823430C6923438B
:100E40004C6923438C692343CC6923434C6A234375
:100E50008C6A23431A430260CB6843600B6883604B
:100E60004B68C36010BD000070B504460E460025F7
:100E700005E0207805494855641C681CC5B2B54298
:100E8000F7DB3146024800F005F870BDA4000020F1
:100E90004400024070B505460E46002400E0641C84
:100EA0000B480078012803D14EF660208442F6D327
:100EB00000212846FFF7E4FE3146284600F00AF8F4
:100EC00001200349087001212846FFF7D9FE70BDB3
:100ED00043000020416070472DE9F0410446A0889E
:100EE00001F0A6FC0746194901F0B6FC0646184970
:100EF00001F07EFD054601F063FC1649088060881C
:100F000001F096FC0646144901F0A6FC054601F0E6
:100F100057FC10498870208801F08AFC06460E496B
:100F200001F09AFC054601F04BFC0A49C870E088C4
:100F300001F07EFC0646084901F08EFC054601F0F2
:100F40003FFC04490871BDE8F0810000910F7A3E32
:100F500000007A444C000020740CC83C70472DE916
:100F6000F04102460025002600200023002400272F
:100F700091F803C00CF00F0591F803C00CF0100CB1
:100F8000BCF1000F03D091F802C04CEA050591F8BE
:100F900000C0BCF1000F31D0146800202BE04FF0EE
:100FA000010C0CFA00F3B1F800C00CEA03069E42F3
:100FB00020D183004FF00F0C0CFA03F7BC4305FA65
:100FC00003FC4CEA040491F803C0BCF1280F06D1DD
:100FD0004FF0010C0CFA00FCC2F814C00AE091F8C2
:100FE00003C0BCF1480F05D14FF0010C0CFA00FC16
:100FF000C2F810C0401C0828D1D31460B1F800C05A
:10100000BCF1FF0F34DD546800202EE000F1080C25
:101010004FF0010808FA0CF3B1F800C00CEA03061F
:101020009E4221D183004FF00F0C0CFA03F7BC4312
:1010300005FA03FC4CEA040491F803C0BCF1280F44
:1010400005D100F1080C08FA0CF8C2F8148091F8E8
:1010500003C0BCF1480F07D100F1080C4FF00108A4
:1010600008FA0CF8C2F81080401C0828CED354604F
:10107000BDE8F081F0B50A460023002400210025D8
:1010800000F00046B6F1004F02D11D4EF16901E0BB
:101090001B4E7168C0F3034583B200F44016B6F5E9
:1010A000401F08D121F07061154E766826F07066F9
:1010B000134F7E6012E000F48016B6F5801F06D153
:1010C000032606FA05F4A14341F0706106E0460DDF
:1010D000360103FA06F6B14341F0706122B1460DC4
:1010E000360103FA06F6314300F00046B6F1004F30
:1010F00002D1034EF16101E0014E7160F0BD0000CC
:10110000000001400246002093680B400BB1012013
:1011100000E000207047416170470161704700BFE7
:10112000FEE7000038B50446B248407801281FD0D9
:10113000B048407802281CD1B2202070AE48007818
:101140006070AD484078A070AB488078E070AA48E5
:10115000C0782071A84800796071A8480078A07113
:10116000A6488078E071A348007820722B20607533
:101170003EE1A048407803287ED1C32020709E48DD
:10118000007860709C484078A0709D49C8689D496F
:1011900001F062FB054601F0F7FA00B200909DF8FD
:1011A0000100E0709DF8000020719549086995499B
:1011B00001F052FB054601F0E7FA00B200909DF8FD
:1011C000010060719DF80000A0718D4948698D494A
:1011D00001F042FB054601F0D7FA00B200909DF8FD
:1011E0000100E0719DF8000020728549086885497A
:1011F00001F032FB054601F0C7FA00B200909DF8FD
:10120000010060729DF80000A0727D4948687D4928
:1012100001F022FB054601F0B7FA00B200909DF8FC
:101220000100E0729DF800002073754988687549D7
:1012300001F012FB054601F0A7FA00B200909DF8FC
:10124000010060739DF80000A0736D4988696D49C5
:1012500001F002FB054601F097FA00B200909DF8FC
:101260000100E0739DF8000020746549C869654974
:1012700001F0F2FA054600E01CE001F085FA00B248
:1012800000909DF8010060749DF80000A0745C4916
:10129000086A5C4901F0E0FA054601F075FA00B20F
:1012A00000909DF80100E0749DF8000020753C203E
:1012B00060759DE04F4840780428FAD1D420207012
:1012C0004D48007860704C484078A0704E49C8681E
:1012D0004C4901F0C1FA054601F056FA00B20090FF
:1012E0009DF80100E0709DF80000207146490869F2
:1012F000444901F0B1FA054601F046FA00B2009007
:101300009DF8010060719DF80000A0713E49486998
:101310003C4901F0A1FA054601F036FA00B200900E
:101320009DF80100E0719DF80000207236490868C0
:10133000344901F091FA054601F026FA00B2009016
:101340009DF8010060729DF80000A0722E49486867
:101350002C4901F081FA054601F016FA00B200901E
:101360009DF80100E0729DF800002073264988680E
:10137000244901F071FA054601F006FA00B2009026
:101380009DF8010060739DF80000A0731E498869F4
:101390001C4901F061FA054601F0F6F900B200902F
:1013A0009DF80100E0739DF8000020741649C8699B
:1013B000144901F051FA054601F0E6F900B2009037
:1013C0009DF8010060749DF80000A0740E49086A41
:1013D0000C4901F041FA054601F0D6F900B200903F
:1013E0009DF80100E0749DF8000020754D206075A7
:1013F00038BD0000360000204C00002030000020E6
:10140000E400002000007A440801002008B5012112
:10141000082000F043FB40F60340ADF800004820F0
:101420008DF8030069460248FFF799FD08BD0000EA
:10143000000C014010B5044614B101202D4908707C
:101440002C480078002839D001212B48FFF75AFE9C
:1014500080B14FF480612848FFF754FE50B14FF43B
:1014600000612548FFF74EFE20B102212248FFF718
:1014700049FE18BB0A2001F051F800201D490870F0
:1014800001211D48FFF73EFE08B9012010BD4FF4B1
:1014900080611948FFF736FE08B90220F6E74FF4DD
:1014A00000611548FFF72EFE08B90320EEE7022180
:1014B0001148FFF727FED8B90420E7E701210E48BD
:1014C000FFF720FE012813D181020B48FFF71AFE17
:1014D00001280DD1C1020848FFF714FE012807D1E9
:1014E00002210548FFF70EFE012801D101490870CD
:1014F0000020CBE734000020000C014010B504466A
:1015000014B101201A49087019480078F8B14FF455
:1015100080611848FFF7F6FDC8B94FF4006115481F
:10152000FFF7F0FD98B90A2000F0F8FF00201049FD
:1015300008704FF480610F48FFF7E4FDB0B94FF435
:1015400000610C48FFF7DEFD80B9012010BD4FF4AB
:1015500080610848FFF7D6FD012807D1C102054880
:10156000FFF7D0FD012801D1014908700020EDE707
:1015700035000020000C014008B50121082000F0D2
:101580008DFA0121084600F089FA01210A48FFF787
:1015900071FD7820ADF8000010208DF803000320C5
:1015A0008DF8020069460548FFF7D9FC7821034809
:1015B000FFF7B3FD08BD000000023000000C014041
:1015C00028480078012804D0022809D0032817D120
:1015D0000EE00120244908602449C1F88C0110E084
:1015E00000202149086001202049C1F88C0108E051
:1015F00001201D49086000201C49C1F88C0100E051
:1016000000BF00BF17484078012806D002280CD040
:10161000032812D0042822D118E0002012490831F2
:1016200008601249C1F894011AE001200E490831FE
:1016300008600E49C1F8940112E000200A490831FF
:10164000086001200949C1F8940109E00120064918
:101650000831086000200549C1F8940100E000BF8E
:1016600000BF704736000020908121420080214257
:1016700000BFFEE7704700001CB511A103C9CDE90A
:101680000001082000F0F6FA05226946302000F03B
:101690001FF905226946102000F07EF8002406E0BC
:1016A0001DF80400A52800D003E0601CC4B2052C7E
:1016B000F6DB00BF052C01D001201CBD0020FCE79B
:1016C000A5A5A5A5A500000000B587B001210C20A7
:1016D00000F0E4F94FF44070ADF8180010208DF8D8
:1016E0001B0003208DF81A0006A92548FFF737FCD8
:1016F0001020ADF8180028208DF81B0006A92148FD
:10170000FFF72DFC18211F48FFF705FD4FF400518E
:101710001D48FFF700FD00F03BFA00211B4800F0D8
:10172000BDFA0020ADF804004FF48270ADF8060059
:101730000020ADF80800ADF80A00ADF80C004FF439
:101740000070ADF80E003820ADF810000020ADF8A4
:1017500012000720ADF8140001A90C4800F0B8FAF7
:1017600001210A4800F09AFA002009490860012086
:101770000849C1F8A401FFF77FFF07B000BD0000D2
:10178000000C014000080140001001400030014001
:10179000A0812142008021422DE9F04107460D46FB
:1017A000164600200A490860384600F039FA80469B
:1017B000002405E0FF2000F033FA2855601CC4B275
:1017C000B442F7DB0120024908604046BDE8F081E1
:1017D000A481214270B504460020074908602046D4
:1017E00000F01EFAFF2000F01BFA05460120034915
:1017F000C1F8A401284670BDA48121420080214285
:1018000010B500201449086005221449302000F06A
:101810005FF8052212492A2000F05AF80121212000
:1018200000F074F80121222000F070F81A21242021
:1018300000F06CF82821252000F068F80F21262000
:1018400000F064F80E21202000F060F80120054926
:10185000C1F8A00110BD0000A0812142EE2A0008BD
:10186000F32A00080080214270B50546102000F0E0
:1018700001FA00201349086016222946A02000F032
:1018800027F801201049C1F8A00100BF0F480068E7
:101890000028FBD10720FFF79DFF044621462720A3
:1018A00000F034F804F0100028B1FF21E12000F02E
:1018B0002DF8102070BD04F0200008B12020F9E7B9
:1018C000FF20F7E7A0812142008021421001214240
:1018D0002DE9F04107460C46154600200A490860EC
:1018E000384600F09DF98046002605E014F8010B0B
:1018F00000F096F9701CC6B2AE42F7DB0120024937
:1019000008604046BDE8F081A481214270B50546DB
:101910000C46002007490860284600F081F9064679
:10192000204600F07DF901200349C1F8A4013046AA
:1019300070BD0000A48121420080214270B50021C9
:1019400000230F22C47804B3154C246804F4E06427
:10195000C4F5E064210AC1F10403CA40447804FAE2
:1019600003F184781440214309010E4C0678A155F7
:10197000047804F01F050124AC4005786D11AD001A
:1019800005F1E025C5F8004109E0047804F01F05E1
:101990000124AC40044D0678761145F8264070BD10
:1019A0000CED00E000E400E080E100E002490143CA
:1019B000024A1160704700000000FA050CED00E0DB
:1019C00015481649C8600021144801611449416155
:1019D0001148124908600020486011488860114889
:1019E000886100210D48C16101620F480F49C8603C
:1019F0000F490E4801610F4941610B480B490860CE
:101A00000B4848600B4888600B4888610B490748C1
:101A1000C1610B490162704733333340E400002059
:101A20000AD7A33B6F12833A6666463F080100203F
:101A30008FC2753CBC74133C66668640AE47E13D80
:101A40006F12033C01460020034A506820F44040D6
:101A500008435060704700000010024029B1064A58
:101A600052690243044B5A6104E0034A52698243BB
:101A7000014B5A61704700000010024029B1064A2C
:101A8000D2690243044BDA6104E0034AD26982431B
:101A9000014BDA61704700000010024029B1064A8C
:101AA00092690243044B9A6104E0034A92698243BB
:101AB000014B9A61704700000010024030B50021D0
:101AC0000022002400232D4D6D6805F00C0121B18A
:101AD000042905D0082923D105E0294D056022E01D
:101AE000274D05601FE0254D6D6805F47012234DEC
:101AF0006D6805F48034022505EB92421CB9214D36
:101B0000554305600BE01D4D6D6805F400351DB1B2
:101B10001C4D5543056002E0194D5543056002E038
:101B2000174D056000BF00BF144D6D6805F0F00152
:101B30000909154D6B5C0568DD4045600F4D6D680A
:101B400005F4E061090A104D6B5C4568DD40856075
:101B50000A4D6D6805F46051C90A0B4D6B5C456810
:101B6000DD40C560054D6D6805F44041890B074DAA
:101B70006B5CC568B5FBF3F5056130BD0010024034
:101B800000127A0000093D0014000020240000200B
:101B900000B587B001210420FFF780FF0121080371
:101BA000FFF77CFFE020ADF8180018208DF81B002F
:101BB00003208DF81A0006A91748FFF7D0F9E02195
:101BC0001548FFF7AAFA0020ADF804004FF4827020
:101BD000ADF806000020ADF808000220ADF80A00BC
:101BE0000120ADF80C004002ADF80E003820ADF831
:101BF00010000020ADF812000720ADF8140001A974
:101C0000064800F065F80121044800F047F8FF207D
:101C100000F006F807B000BD0008014000300140A8
:101C200070B50546002405E0601CC4B2C82C01DD77
:101C3000002070BD02210E4800F03CF80028F3D0CF
:101C400029460B4800F042F8002405E0601CC4B2AD
:101C5000C82C01DD0020ECE70121054800F02AF83E
:101C60000028F3D0024800F02EF8C0B2E1E70000EF
:101C70000030014010B50446074800884FF6C77190
:101C80000840054908800846008820430880012153
:101C9000014800F003F810BD0030014021B1028876
:101CA00042F04002028004E002884FF6BF731A40FF
:101CB000028070470246002013890B400BB10120BF
:101CC00000E0002070470146888970478181704795
:101CD00010B50022028802F441520B884C8823433D
:101CE0008C882343CC8823430C8923434C8923438A
:101CF0008C892343CC8923431A430280838B4FF280
:101D0000FF74234083830B8A038210BD10B500F05B
:101D100001F810BD0CB50020019000903348006818
:101D200040F480303149086000BF3048006800F45A
:101D3000003000900198401C0190009818B901985B
:101D4000B0F5A06FF1D12948006800F4003010B15F
:101D50000120009001E0002000900098012843D16C
:101D60002348006840F010002149086008460068D8
:101D700020F0030008600846006840F00200086098
:101D80001A48406819494860084640684860084653
:101D9000406840F4806048600846406820F47C1049
:101DA00048600846406840F4E8104860084600680B
:101DB00040F08070086000BF0C48006800F00070C0
:101DC0000028F9D00948406820F00300074948601E
:101DD0000846406840F00200486000BF0348406881
:101DE00000F00C000828F9D10CBD000000100240E2
:101DF00000200240042808D14FF0E021096941F099
:101E000004014FF0E022116107E04FF0E021096981
:101E100021F004014FF0E0221161704710B5134822
:101E2000006840F001001149086008464068104908
:101E300008400E494860084600680E4908400B49B2
:101E400008600846006820F4802008600846406862
:101E500020F4FE0048604FF41F008860FFF756FF33
:101E60004FF000600449086010BD000000100240FF
:101E70000000FFF8FFFFF6FE08ED00E000B587B0B8
:101E800001210420FFF7FAFD0020ADF816004720DD
:101E9000ADF810000020ADF8120044F61F60ADF858
:101EA000140004A9104800F085F86020ADF8000087
:101EB0000020ADF808000120ADF8020041F28830A2
:101EC000ADF806006946084800F028F801210648E8
:101ED00000F00CF80821044800F05EF801210248E7
:101EE00000F010F807B000BD0008004021B10288E2
:101EF00042F08002028004E002884FF67F731A40AD
:101F00000280704721B1028842F00102028004E0A1
:101F100002884FF6FE731A400280704770B50022A7
:101F200000230024058C4EF6FF7635400584038C93
:101F30008488828B48F6FF752A404FF6FF452A4079
:101F40000D884FF6FF7606EA05252A434DF6FF7504
:101F50002B400D8906EA05352B434D8806EA0535E9
:101F60002B430B4DA84202D00A4DA84208D14BF694
:101F7000FF752C408D894FF6FF7606EA85152C43B8
:101F800084808283CD88A0F84050038470BD000017
:101F9000002C0140003401400A460021818B4FF2A1
:101FA000FF7319404FF6FF7303EA0223194381833D
:101FB00070470000002202881D4B98420ED01D4B36
:101FC00098420BD0B0F1804F08D01B4B984205D0FF
:101FD0001A4B984202D01A4B984204D14FF68F7395
:101FE0001A404B881A43174B984207D0164B984219
:101FF00004D04FF6FF431A40CB881A4302808B88E7
:1020000083850B8803850A4B98420BD0094B984275
:1020100008D00E4B984205D00D4B984202D00D4B84
:10202000984201D10B7A0386012383827047000016
:10203000002C014000340140000400400008004032
:10204000000C00400010004000140040004001401F
:10205000004401400048014010B540F224410F48BF
:1020600000F091F8C8B101200D49087000210D4819
:10207000FEF706FE09480488001D04880948FEF79B
:10208000B1FEC0F120000849088020210548FEF774
:1020900021FF01210348FEF7F3FD10BD0038014088
:1020A00042000020580002404400002010B586B0D5
:1020B000044601210420FFF7F1FC01218803FFF70A
:1020C000EDFC18208DF817004FF40070ADF81400E7
:1020D00001208DF8160005A91E48FEF740FF0420D8
:1020E0008DF817000002ADF8140001208DF81600DD
:1020F00005A91848FEF733FF01940020ADF8100041
:102100000C20ADF80E000020ADF80C00ADF80A0070
:10211000ADF8080001A9104800F084F801210E482C
:1021200000F01CF8012240F224410B4800F055F861
:1021300025208DF8000001208DF8030003208DF884
:10214000010000208DF802006846FFF7F7FB06B09B
:1021500010BD0000000801400038014021B1828913
:1021600042F40052828104E082894DF6FF731A40E6
:10217000828170471AB1838A0B43838202E0838A8B
:102180008B438382704770B50246002400230025EC
:10219000002040F66A16B14200D100BFC1F34215DB
:1021A00001F01F03012606FA03F3012D02D19689DF
:1021B000334006E0022D02D1168A334001E0968AB0
:1021C00033400C12012606FA04F41688344013B189
:1021D0000CB1012000E0002070BDF0B503460024E2
:1021E00000260025002040F66A17B94200D100BF42
:1021F0001846C1F3421401F01F06012707FA06F53D
:10220000012C01D10C3004E0022C01D1103000E08F
:1022100014301AB107682F43076002E00768AF4324
:102220000760F0BD2DE9F04786B005460E46002454
:10223000A24600BFA1460027B08900B100BF2F46CB
:102240002C8A4CF6FF700440F08804432C82AC8941
:102250004EF6F3100440B088318908437189084371
:102260000443AC81AC8A4FF6FF400440B08904437C
:10227000AC8201A8FFF722FC1F48874202D1DDF89B
:1022800010A001E0DDF80CA0A88900F4004040B1E6
:102290000AEBCA0000EB0A1031684900B0FBF1F804
:1022A00007E00AEBCA0000EB0A1031688900B0FBB6
:1022B000F1F86420B8FBF0F004012009642101FB6F
:1022C0001089A88900F4004040B1322000EBC90019
:1022D000B0FBF1F000F00700044308E0322000EB0F
:1022E00009106421B0FBF1F000F00F0004432C81D1
:1022F00006B0BDE8F08700000038014000BFFEE7EF
:1023000000B585B001214802FFF7C8FB00208DF819
:10231000050003904FF4202002900020009004203C
:102320008DF8100001208DF8040069461F48FDF764
:10233000B9FF01211D48FDF780FF01211B48FDF772
:1023400087FF4FF40040FFF77DFB062301220021A9
:102350001648FDF7CFFF0623022201211348FDF79F
:10236000C9FF0623032202211048FDF7C3FF0623FD
:10237000042203210D48FDF7BDFF0C48FEF716F8B7
:1023800000BF0A48FDF784FF0028FAD10748FEF78E
:1023900012F800BF0548FDF771FF0028FAD10121AE
:1023A0000248FDF760FF05B000BD000000240140B9
:1023B00000B58DB001210846FFF750FB1E48FEF71F
:1023C0006BFC04200590002004900C9020200A90C3
:1023D000C0010B90194803904FF480600990802051
:1023E000079017480290801508900020069002A9D7
:1023F0001148FEF71AFD0220FEF734FC01220221EB
:102400000D48FEF709FD01210B48FEF739FC4FF49A
:10241000A060FFF7CBFA0B208DF8040000208DF8A8
:10242000050001208DF806008DF8070001A8FFF7D0
:1024300085FA0DB000BD0000080002402800002011
:102440004C24014008B501210420FFF727FB0020A0
:102450008DF803000F20ADF8000069460148FEF733
:102460007EFD08BD0008014010B5FFF7EBFFFFF748
:1024700047FFFFF79DFFFFF701FD10BD10B51448A2
:102480004078022822D10120FFF738F8012805D131
:10249000A120104908701A20887010BD0120FEF795
:1024A000C9FF032803D1A1200A49087002E00020D7
:1024B000084908700120FEF7BDFF022803D11A2049
:1024C0000449887002E000200249887000BFE4E7F8
:1024D000360000203000002010B56FF00400FFF738
:1024E00089FC0A4800680A49B0FBF1F00949087004
:1024F0000846007800EB4001C1EBC0104FF6FF71B9
:1025000001EAC0000449088010BD0000000000205E
:1025100000127A0046000020480000200146114ABF
:1025200012884A434FF0E0235A6100229A611A460A
:10253000126942F001021A6100BF4FF0E0221069F7
:1025400000F001021AB100F48032002AF5D04FF0F9
:10255000E022126922F001024FF0E0231A6100220A
:102560009A617047480000204FF4A060FFF71EFA00
:102570004FF4E13000F01EF8FFF7AEFFFEF7FCFF6E
:10258000FEF78AFAFEF742FF00BFFFF79DF800282A
:10259000FBD1FFF735F9FFF713FAFFF765FF07E007
:1025A000FEF7DEFAFFF76AFFFFF70AF8FDF708FF0C
:1025B000F6E7000010B58CB0044601210846FFF78D
:1025C0004DFA2046FFF772FD3A48FEF765FB2020E2
:1025D0000490002003900B9009904FF480500A90D3
:1025E00035480290002008908020069033480190E2
:1025F00000200790059001A92E48FEF716FC2D48F3
:102600001438FEF749FB202004901020039000208E
:102610000B9009904FF480500A90294802900020B6
:102620000890802006902548019000200790059092
:1026300001A920481438FEF7F8FB0F208DF80000A0
:1026400003208DF8010001208DF802008DF80300B1
:102650006846FFF773F90E208DF8000003208DF80F
:10266000010002208DF802006846FFF767F9012299
:10267000022110481438FEF7CFFB012202210D4839
:10268000FEF7CAFB01210B481438FEF7F9FA0121C5
:102690000848FEF7F5FA012240210848001FFFF71D
:1026A00069FD012280210548001FFFF763FD0CB082
:1026B00010BD000058000240C40000200438014052
:1026C000A400002090EA010F48BF81F0004100F112
:1026D000A081421A3CBF801A89184FEAD0524FF0AD
:1026E0007F4C1CEA410FA2EBD15318BF9CEA026F4A
:1026F00000F03B804FF0004C4CEA00204CEA0121F6
:1027000021FA03FC10EB0C0C1ED202F1FF325FEA3F
:102710001C2040EBC25038BF70471CF07F0F4FEABF
:10272000400C18BFBCF17F4F38BF7047C3F1200386
:10273000994008BF20F00100BCF17F4F38BF7047BF
:10274000A0F1C04000F04FB94FEA3C00000A40EB56
:10275000C25028BF1CF0FF0F4FEA400CE6D018BF54
:10276000BCF17F4F38BF7047EAE79CEA026F05D0A3
:1027700010EA5C0F08BF00F00040704710B500F091
:10278000ECF800BF64FBBE3E41000B0ED3F19E028D
:1027900008D950F400034FEA032323FA02F048BF9C
:1027A0004042704710B500F0D8F800BF499224802D
:1027B000002070476FF0004282EA2000704700005E
:1027C000C10DD1F19E0206DB4FEA002343F0004326
:1027D00023FA02F07047004207D54FEA4001B1F1F9
:1027E000FE4F02D24FF00000704710B500F0B5F870
:1027F00049922480002070476FEA20007047000053
:1028000010F0004148BF4042B0FA80F310FA03F2E2
:10281000C3F19D030BD051EAC35101EB12205306C3
:1028200038BF704700F1010008BF20F00100704779
:10283000B0FA80F310FA03F2C3F19D030AD0D90570
:1028400001EB1220530638BF704700F1010008BFAA
:1028500020F00100704700004FF47F0C1CEAD012FA
:102860001EBF1CEAD11392EA0C0F93EA0C0F00F082
:10287000478090EA010F48BF42F480724FF0004C4D
:102880004CEA00204CEA012102EB0302A0FB0113F9
:10289000A2F50002002918BF43F001035B0028BF26
:1028A0004FEA330342EB22425FEA132C4CEBC25057
:1028B0002EBFBCEB436FB2F57C0F70474FEA036C41
:1028C000BCF1004F08BF20F00100B2F57C0F38BF0B
:1028D00070470BD582F0FF0212F5803FC8BF7047EA
:1028E00000F1C040D8BF00F00040704700F5000C78
:1028F0005FEA4C0C48BF7047B0F1C04000F073B8BD
:1029000090EA010F0CEAD11348BF42F4807262458D
:1029100038BF634504D280EA010000F000407047F0
:1029200010B500F01AF800BF8900013E00F007B8AA
:1029300000F009B85FEA410C5FEA1C6C08D080EA3D
:10294000010000F050B85FEA400C5FEA1C6CF6D161
:102950004FF00040A0F5800070470EF1020E2EF0FF
:10296000030E5EF8044B244204D44FEA4102B2F154
:102970007F4F11D84FEA4003B3F17F4F0CD80ED1EF
:102980004FEAD07CB2F17F4F0CEB4C0C0CF1020CF7
:1029900008BF4CEBD17C04E04FF0080C01E04FEA9B
:1029A000D17C0CEB4C0324FA03F404F00704B4F1DB
:1029B000040C06D20EEB840CBDE810404CF0010C68
:1029C0006047DFE80CF0070802024FF00040A0F576
:1029D000800010BD0846420018BFD2F1807288BF47
:1029E00000F0004010BDFF2141EAD050C005704703
:1029F00080F0004090EA010F7FF56BAE81F000415E
:102A000000F007B890EA010F48BF81F000413FF5A0
:102A100060AE421A04D882F00042A0EB02001144DA
:102A20004FEAD0524FF07F4C1CEA410FA2EBD1533A
:102A300018BF9CEA026F4AD04FF0004C4CEA0020CD
:102A40004CEA012121FA03FCB0EB0C0C0FD412F07C
:102A5000FE0F36D05FEA4C001DD5001240EBC2508D
:102A600038BF70471CF03F0F18BF70470BE0A2F152
:102A700001025FEA1C2040EBC25038BF70471CF0D7
:102A80007F0F18BF7047C3F12003994014BF401E49
:102A900020F00100704780084FEA122308BF7047FA
:102AA000B0FA80FCA2EB0C02CCF1280C60FA0CF01E
:102AB00093EA122F04BF00EBC25070474FEAC37075
:102AC0007047130A5FEADC1008BF7047F6E79CEA1C
:102AD000026F04D010EA5C0F08BF0020704710B5E9
:102AE000FFF73BFF40DFF63E81F000407047344384
:102AF0001010013443101001182B000800000020B2
:102B00004C00000028010008642B00084C00002045
:102B1000440700004401000800A24A04000000002D
:102B2000000000000102030406070809000000007D
:102B3000010203040102030406070809020406084F
:102B40000000000000000000000000000101010181
:102B50003443101001040E18220000000000000091
:042B60000000000071
:04000005080000ED02
:00000001FF
