:020000040800F2
:100000009007002089010008DD150008D7100008BE
:10001000D9150008850A00086522000800000000C4
:100020000000000000000000000000009B0100082C
:10003000150F0008000000009F010008A101000842
:10004000A3010008A3010008A3010008A301000800
:10005000A3010008A3010008A3010008A3010008F0
:10006000A3010008A3010008A3010008650B000814
:10007000A3010008A3010008C90B0008E90B000850
:10008000A3010008A3010008A3010008A3010008C0
:10009000A3010008A3010008A3010008A3010008B0
:1000A000A3010008A3010008A3010008A3010008A0
:1000B000A3010008A3010008A3010008A301000890
:1000C000A3010008A3010008A3010008A301000880
:1000D000A3010008C11F0008A3010008A301000834
:1000E000A3010008A3010008A301000800F002F822
:1000F00000F03AF80AA090E8000C82448344AAF188
:100100000107DA4501D100F02FF8AFF2090EBAE885
:100110000F0013F0010F18BFFB1A43F0010318473B
:100120003C2900005C290000103A24BF78C878C13F
:10013000FAD8520724BF30C830C144BF04680C60ED
:10014000704700000023002400250026103A28BF35
:1001500078C1FBD8520728BF30C148BF0B60704739
:100160001FB51FBD10B510BD00F031F81146FFF7E7
:10017000F7FF02F0ADF900F04FF803B4FFF7F2FF1C
:1001800003BC00F053F800000948804709480047C5
:10019000FEE7FEE7FEE7FEE7FEE7FEE7FEE7FEE737
:1001A000FEE7FEE704480549054A064B7047000094
:1001B000851D0008ED000008900100209007002038
:1001C00090030020900300207047704770477546E9
:1001D00000F028F8AE4605006946534620F00700B7
:1001E000854618B020B5FFF7DDFFBDE820404FF091
:1001F00000064FF000074FF000084FF0000B21F011
:100200000701AC46ACE8C009ACE8C009ACE8C009DD
:10021000ACE8C0098D4670470446AFF30080204625
:10022000FFF7ABFF004870472C0100200149182060
:10023000ABBEFEE726000200704721B1826842F0A3
:100240000102826003E0826822F00102826070474E
:1002500021B1826842F48072826003E0826822F4F5
:1002600080728260704721B1826842F4801282609D
:1002700003E0826822F48012826070470146002009
:100280008A6802F004020AB1012000E000207047F1
:10029000014600208A6802F008020AB1012000E04D
:1002A0000020704730B502460020002350680F4CF4
:1002B00020400D790C6844EA052420435060906882
:1002C0000B4C2040D1E902542C434D7944EA4504BB
:1002D00020439060D06A20F470000C7C641EE4B26D
:1002E000234340EA0350D06230BD0000FFFEF0FF20
:1002F000FDF7F1FFF0B504460D4600200021092D61
:1003000011DDE068A5F10A0606EB4607072606FAA6
:1003100007F18843A5F10A0606EB460603FA06F143
:100320000843E0600CE0206905EB4507072606FA64
:1003300007F1884305EB450603FA06F108432061FF
:10034000072A0FDA606B561E06EB86071F2606FA91
:1003500007F18843561E06EB860605FA06F10843A8
:10036000606322E00D2A0FDA206BD61F06EB8607AA
:100370001F2606FA07F18843D61F06EB860605FA04
:1003800006F10843206310E0E06AA2F10D0606EBD7
:1003900086071F2606FA07F18843A2F10D0606EB31
:1003A000860605FA06F10843E062F0BD816841F077
:1003B000080181607047816841F0040181607047E5
:1003C0007CB50B49087802F0E5F9044608494878FD
:1003D00002F0E0F90546002000900346024621465F
:1003E0000190284600F09EF900F004F87CBD000062
:1003F0003600002000B589B02948007801284CD18A
:10040000002005E02749095C01AA1154411CC8B22B
:100410002028F7DB9DF80400AA283BD19DF80500B1
:10042000AF2837D19DF80600122822D008DC012819
:100430000DD0022810D0102813D0112829D114E093
:1004400013281AD014281CD0152822D11DE09DF89D
:10045000080000F019FB1CE09DF8080000F018FBF4
:1004600017E001A800F002FA13E001A800F076FA04
:100470000FE001A800F0EAFA0BE001A800F0EDFAA5
:1004800007E001A800F0F0FA03E001A800F0F3FA99
:1004900000BF00BF00200249087009B000BD000085
:1004A00042000020C40000202DE9F04106460F461E
:1004B0000024A046AA222146641C16484254214624
:1004C000641C4254EF222146641C425400222146FF
:1004D000641C42542146641C46542146641C475403
:1004E000201F0C49C870002506E00A48405D4044C2
:1004F00000F0FF08681CC5B2A542F6DB2046611C6F
:10050000CCB2044901F800802146024800F088FC82
:10051000BDE8F081720000202DE9FC5F06460F4621
:1005200090469946DDF830B00024A246AA22214622
:10053000641C7A4842542146641C425406F10F0060
:10054000C2B22146641C7548425400222146641CF4
:1005500042547349384602F031F9009002F0C6F86F
:1005600000B201909DF805202146641C6B4842545E
:100570009DF804202146641C42546949404602F01B
:100580001DF9009002F0B2F800B201909DF805202C
:100590002146641C614842549DF804202046611C99
:1005A000CCB25E490A545E49484602F007F9009011
:1005B00002F09CF800B201909DF805202046611CD5
:1005C000CCB256490A549DF804202046611CCCB296
:1005D00052490A545249584602F0F0F8009002F08D
:1005E00085F800B201909DF805202046611CCCB230
:1005F0004A490A549DF804202046611CCCB2474960
:100600000A5447490D9802F0D9F8009002F06EF8AC
:1006100000B201909DF805202046611CCCB23F49F4
:100620000A549DF804202046611CCCB23B490A5470
:100630003B490E9802F0C2F8009002F057F800B261
:1006400001909DF805202046611CCCB233490A5424
:100650009DF804202046611CCCB230490A54304930
:100660000F9802F0ABF8009002F040F800B2019051
:100670009DF805202046611CCCB228490A549DF8FB
:1006800004202046611CCCB224490A542449109805
:1006900002F094F8009002F029F800B201909DF861
:1006A00005202046611CCCB21C490A549DF8042048
:1006B0002046611CCCB219490A541949119802F01C
:1006C0007DF8009002F012F800B201909DF805202C
:1006D0002046611CCCB211490A549DF804202046E2
:1006E000611CCCB20D490A54201FC870002506E0D9
:1006F0000A48405D504400F0FF0A681CC5B2A5429C
:10070000F6DB2046611CCCB2044901F800A021466A
:10071000024800F085FBBDE8FC9F0000720000204D
:1007200000007A442DE9FE4F81460D4616461F46CD
:10073000DDE90CAB0024642078430190AA22214615
:10074000641C484842542146641C425401222146FC
:10075000641C425400222146641C425442494846CB
:1007600002F02CF8009001F0C1FF00B202909DF859
:1007700009202146641C3B4842549DF8082021462C
:10078000641C42543849284602F018F8009001F0E1
:10079000ADFF00B202909DF809202146641C31484B
:1007A00042549DF808202046611CCCB22D490A54C1
:1007B0002D49304602F002F8009001F097FF00B298
:1007C00002909DF809202046611CCCB225490A54AC
:1007D0009DF808202046611CCCB222490A549DF89D
:1007E00007202046611CCCB21E490A549DF8062001
:1007F0002046611CCCB21B490A549DF805202046B6
:10080000611CCCB217490A549DF804202046611C93
:10081000CCB214490A542046611CCCB2114901F8EB
:1008200000A02046611CCCB20E4901F800B0201F88
:10083000C8704FF00008002006E00A49095C4144F6
:1008400001F0FF08411CC8B2A042F6DB2046611C43
:10085000CCB2044901F800802146024800F0E0FAD9
:10086000BDE8FE8F720000200000C84270B504464B
:100870006179227941EA022001F074FF0546354989
:1008800001F09CFF34490860E179A27941EA022035
:1008900001F068FF05462F4901F090FF2E4948609E
:1008A000617A227A41EA022001F05CFF054629497B
:1008B00001F084FF28498860E17AA27A41EA0220A7
:1008C00001F050FF0546234901F078FF2249C86036
:1008D000617B227B41EA022001F044FF05461D496D
:1008E00001F06CFF1C490861E17BA27B41EA022018
:1008F00001F038FF0546174901F060FF16494861CD
:10090000617C227C41EA022001F02CFF054611495E
:1009100001F054FF10498861E17CA27C41EA022089
:1009200001F020FF05460B4901F048FF0A49C86164
:10093000617D227D41EA022001F014FF0546054950
:1009400001F03CFF04490862A17DA078FFF7ACFDEF
:1009500070BD00006F12833AE400002070B50446B9
:100960006179227941EA022001F0FCFE0546354911
:1009700001F024FF34490860E179A27941EA0220BC
:1009800001F0F0FE05462F4901F018FF2E4948609E
:10099000617A227A41EA022001F0E4FE0546294903
:1009A00001F00CFF28498860E17AA27A41EA02202E
:1009B00001F0D8FE0546234901F000FF2249C86036
:1009C000617B227B41EA022001F0CCFE05461D49F5
:1009D00001F0F4FE1C490861E17BA27B41EA0220A0
:1009E00001F0C0FE0546174901F0E8FE16494861CE
:1009F000617C227C41EA022001F0B4FE05461149E7
:100A000001F0DCFE10498861E17CA27C41EA022011
:100A100001F0A8FE05460B4901F0D0FE0A49C86165
:100A2000617D227D41EA022001F09CFE05460549D8
:100A300001F0C4FE04490862A17DA078FFF734FDEF
:100A400070BD00006F12833A0801002010B5044603
:100A5000A17DA078FFF728FD10BD10B50446A17D4B
:100A6000A078FFF721FD10BD10B50446A17DA07848
:100A7000FFF71AFD10BD10B50446A17DA078FFF761
:100A800013FD10BD00BFFEE700BF00BF70470000B0
:100A900010B586B00446012C37D11D48006A1C49A8
:100AA000C9691B4A92691A4B5B69CDE90232CDE9EB
:100AB0000410174800691649C968CDE900101448A8
:100AC0008368426801680120FFF726FD022001F0DB
:100AD000D9FC1048006A0F49CA6989690D4B5B69E6
:100AE000CDE90231CDE904200A4800690949C96805
:100AF000CDE9001007488368426801680220FFF7CB
:100B00000BFD022001F0BEFC00BF00BF06B010BD0F
:100B1000E40000200801002010B50024002000F0AF
:100B20006FFC0446012C05D10D484078401C0C494F
:100B3000487006E0042C04D109480078401C08499C
:100B4000087007484078042802DD012004494870F5
:100B500003480078042802D101200149087010BD23
:100B60003600002010B5022000F01CF9012824D125
:100B7000124800F08DF9124800F0B0FA104800F069
:100B800027FE0446FF2C12D10E488068C82806D2E2
:100B90000C488068401C0B4988600020C8600948E8
:100BA0008068C82806D101200649C86002E00020FC
:100BB00004498860022000F031F810BD28000020B0
:100BC0005C0000204C00002010B54FF4005000F0F5
:100BD000E9F830B10020034908704FF4805000F06C
:100BE0001DF810BD4300002010B54FF4003000F098
:100BF000D9F878B10021084800F01EF820210648F5
:100C000000F044F94FF4803000F008F80121024868
:100C100000F012F810BD00005800024000F08051B2
:100C200011B10349086001E00249486070470000C3
:100C3000040402400000024021B1026842F00102B7
:100C4000026004E002684FF6FE731A4002607047CB
:100C500001684FF6FE7211400160002101604160A1
:100C60008160C1604B49884208D14A4908394968C6
:100C700041F00F01474A083A51608AE04549143172
:100C8000884208D143490839496841F0F001414A96
:100C9000083A51607DE03F492831884208D13D49FA
:100CA0000839496841F470613A4A083A516070E085
:100CB00038493C31884208D136490839496841F4FD
:100CC0007041344A083A516063E0324950318842F9
:100CD00008D130490839496841F470212D4A083A51
:100CE000516056E02B496431884208D129490839BE
:100CF000496841F47001274A083A516049E02549A2
:100D00007831884208D123490839496841F0706137
:100D1000204A083A51603CE01F49884206D1011F31
:100D2000096841F00F01021F116032E01A491431C5
:100D3000884208D11849091F096841F0F001164A94
:100D4000121F116025E014492831884208D1124948
:100D5000091F096841F470610F4A121F116018E001
:100D60000D493C31884208D10B49091F096841F4FB
:100D70007041094A121F11600BE007495031884247
:100D800007D10549091F096841F47021024A121F61
:100D9000116070470800024008040240014648689C
:100DA00080B2704701460020002201F0805313B149
:100DB000054B1A6801E0054B1A6802EA01030BB102
:100DC000012000E0002070470004024000000240C3
:100DD0001AB103680B43036002E003688B430360AE
:100DE000704710B50022026847F6F0739A430C6A08
:100DF0008B6823430C6923434C6923438C69234349
:100E0000CC6923434C6A23438C6A23431A43026010
:100E1000CB6843600B6883604B68C36010BD000003
:100E200070B504460E46002505E020780549485572
:100E3000641C681CC5B2B542F7DB3146024800F0BD
:100E400005F870BDA40000204400024070B50546BE
:100E50000E46002400E0641C0B480078012803D1F2
:100E60004EF660208442F6D300212846FFF7E4FEC8
:100E70003146284600F00AF8012003490870012194
:100E80002846FFF7D9FE70BD43000020416070473F
:100E90002DE9F0410446E08801F07CFC0746194941
:100EA00001F08CFC0646184901F054FD054601F09E
:100EB00039FC16490880208801F06CFC064614496C
:100EC00001F07CFC054601F02DFC1049887060881B
:100ED00001F060FC06460E4901F070FC054601F089
:100EE00021FC0A49C870A08801F054FC0646084954
:100EF00001F064FC054601F015FC04490871BDE8E9
:100F0000F0810000910F7A3E00007A444C000020EE
:100F1000740CC83C70472DE9F041024600250026BC
:100F2000002000230024002791F803C00CF00F05D7
:100F300091F803C00CF0100CBCF1000F03D091F835
:100F400002C04CEA050591F800C0BCF1000F31D099
:100F5000146800202BE04FF0010C0CFA00F3B1F8FC
:100F600000C00CEA03069E4220D183004FF00F0C14
:100F70000CFA03F7BC4305FA03FC4CEA040491F8AD
:100F800003C0BCF1280F06D14FF0010C0CFA00FC95
:100F9000C2F814C00AE091F803C0BCF1480F05D1B3
:100FA0004FF0010C0CFA00FCC2F810C0401C0828DD
:100FB000D1D31460B1F800C0BCF1FF0F34DD546828
:100FC00000202EE000F1080C4FF0010808FA0CF3A5
:100FD000B1F800C00CEA03069E4221D183004FF015
:100FE0000F0C0CFA03F7BC4305FA03FC4CEA0404AB
:100FF00091F803C0BCF1280F05D100F1080C08FAE4
:101000000CF8C2F8148091F803C0BCF1480F07D166
:1010100000F1080C4FF0010808FA0CF8C2F8108033
:10102000401C0828CED35460BDE8F081F0B50A46D4
:10103000002300240021002500F00046B6F1004FF7
:1010400002D11D4EF16901E01B4E7168C0F30345EA
:1010500083B200F44016B6F5401F08D121F070614C
:10106000154E766826F07066134F7E6012E000F42D
:101070008016B6F5801F06D1032606FA05F4A143B3
:1010800041F0706106E0460D360103FA06F6B14301
:1010900041F0706122B1460D360103FA06F6314384
:1010A00000F00046B6F1004F02D1034EF16101E0BD
:1010B000014E7160F0BD00000000014002460020BA
:1010C00093680B400BB1012000E0002070474161A4
:1010D00070470161704700BFFEE7000038B5044665
:1010E000B248407801281FD0B048407802281CD16F
:1010F000B2202070AE4800786070AD484078A07093
:10110000AB488078E070AA48C0782071A848007980
:101110006071A8480078A071A6488078E071A34863
:10112000007820722B2060753EE1A04840780328AB
:101130007ED1C32020709E48007860709C48407823
:10114000A0709D49C8689D4901F038FB054601F033
:10115000CDFA00B200909DF80100E0709DF800000B
:10116000207195490869954901F028FB054601F071
:10117000BDFA00B200909DF8010060719DF800007A
:10118000A0718D4948698D4901F018FB054601F0B1
:10119000ADFA00B200909DF80100E0719DF80000EA
:1011A000207285490868854901F008FB054601F071
:1011B0009DFA00B200909DF8010060729DF8000059
:1011C000A0727D4948687D4901F0F8FA054601F0B2
:1011D0008DFA00B200909DF80100E0729DF80000C9
:1011E000207375498868754901F0E8FA054601F0F1
:1011F0007DFA00B200909DF8010060739DF8000038
:10120000A0736D4988696D4901F0D8FA054601F06F
:101210006DFA00B200909DF80100E0739DF80000A7
:1012200020746549C869654901F0C8FA054600E0BF
:101230001CE001F05BFA00B200909DF801006074C0
:101240009DF80000A0745C49086A5C4901F0B6FA98
:10125000054601F04BFA00B200909DF80100E074E1
:101260009DF8000020753C2060759DE04F48407857
:101270000428FAD1D42020704D48007860704C4882
:101280004078A0704E49C8684C4901F097FA05466D
:1012900001F02CFA00B200909DF80100E0709DF87A
:1012A0000000207146490869444901F087FA054663
:1012B00001F01CFA00B200909DF8010060719DF8E9
:1012C0000000A0713E4948693C4901F077FA0546A3
:1012D00001F00CFA00B200909DF80100E0719DF859
:1012E0000000207236490868344901F067FA054663
:1012F00001F0FCF900B200909DF8010060729DF8C9
:101300000000A0722E4948682C4901F057FA0546A2
:1013100001F0ECF900B200909DF80100E0729DF838
:101320000000207326498868244901F047FA0546E1
:1013300001F0DCF900B200909DF8010060739DF8A7
:101340000000A0731E4988691C4901F037FA054660
:1013500001F0CCF900B200909DF80100E0739DF817
:10136000000020741649C869144901F027FA05469F
:1013700001F0BCF900B200909DF8010060749DF886
:101380000000A0740E49086A0C4901F017FA0546DE
:1013900001F0ACF900B200909DF80100E0749DF8F6
:1013A000000020754D20607538BD0000360000201B
:1013B0004C00002030000020E400002000007A44AF
:1013C0000801002008B50121082000F01BFB0121C5
:1013D000084600F017FB01210748FFF727FE4FF4EE
:1013E0004360ADF8000048208DF8030069460348CB
:1013F000FFF791FD08BD000000023000000C014025
:1014000010B5044614B101202D4908702C4800780D
:10141000002839D020212B48FFF750FE80B1102141
:101420002848FFF74BFE58B14FF480612548FFF77D
:1014300045FE28B14FF400612248FFF73FFE18BB7C
:101440000A2001F01FF800201D49087020211D48C6
:10145000FFF734FE08B9012010BD10211948FFF72D
:101460002DFE08B90220F7E74FF480611548FFF719
:1014700025FE08B90320EFE74FF400611148FFF79C
:101480001DFED8B90420E7E720210E48FFF716FE1D
:10149000012813D110210B48FFF710FE01280DD1B0
:1014A00081020848FFF70AFE012807D1C10205485A
:1014B000FFF704FE012801D1014908700020CBE7A5
:1014C00034000020000C014010B5044614B1012086
:1014D0001949087018480078E8B110211748FFF73B
:1014E000EDFDC0B94FF480611448FFF7E7FD90B9F6
:1014F0000A2000F0C7FF00200F49087010210F4894
:10150000FFF7DCFDA8B94FF480610C48FFF7D6FD6A
:1015100078B9012010BD10210848FFF7CFFD012840
:1015200007D181020548FFF7C9FD012801D1024911
:1015300008700020EEE7000035000020000C01409C
:1015400008B50121082000F05DFA4220ADF8000046
:1015500010208DF8030003208DF80200694604482E
:10156000FFF7D9FC42210248FFF7B3FD08BD000098
:10157000000C014015484078012806D002280BD005
:10158000032810D004281ED115E00020104908605F
:101590001049C1F8980117E001200D4908600D4974
:1015A000C1F8980110E000200949086001200949AC
:1015B000C1F8980108E001200549086000200549AC
:1015C000C1F8980100E000BF00BF7047360000205E
:1015D000848121420080214200BFFEE77047000065
:1015E0001CB511A103C9CDE90001082000F0F6FAED
:1015F00005226946302000F01FF9052269461020B7
:1016000000F07EF8002406E01DF80400A52800D0B4
:1016100003E0601CC4B2052CF6DB00BF052C01D032
:1016200001201CBD0020FCE7A5A5A5A5A500000084
:1016300000B587B001210C2000F0E4F94FF44070B0
:10164000ADF8180010208DF81B0003208DF81A004B
:1016500006A92548FFF75FFC1020ADF818002820E8
:101660008DF81B0006A92148FFF755FC18211F48DB
:10167000FFF72DFD4FF400511D48FFF728FD00F046
:101680003BFA00211B4800F0BDFA0020ADF8040031
:101690004FF48270ADF806000020ADF80800ADF8F8
:1016A0000A00ADF80C004FF40070ADF80E003820C1
:1016B000ADF810000020ADF812000720ADF81400BE
:1016C00001A90C4800F0B8FA01210A4800F09AFA82
:1016D00000200949086001200849C1F8A401FFF76A
:1016E0007FFF07B000BD0000000C01400008014072
:1016F0000010014000300140A081214200802142C1
:101700002DE9F04107460D46164600200A490860BB
:10171000384600F039FA8046002405E0FF2000F04A
:1017200033FA2855601CC4B2B442F7DB01200249E9
:1017300008604046BDE8F081A481214270B50446AE
:10174000002007490860204600F01EFAFF2000F044
:101750001BFA054601200349C1F8A401284670BDC3
:10176000A48121420080214210B500201449086064
:1017700005221449302000F05FF8052212492A2082
:1017800000F05AF80121212000F074F801212220F4
:1017900000F070F81A21242000F06CF82821252090
:1017A00000F068F80F21262000F064F80E212020B8
:1017B00000F060F801200549C1F8A00110BD00004B
:1017C000A0812142522A0008572A000800802142A5
:1017D00070B50546102000F001FA0020134908609A
:1017E00016222946A02000F027F801201049C1F850
:1017F000A00100BF0F4800680028FBD10720FFF7B9
:101800009DFF04462146272000F034F804F0100024
:1018100028B1FF21E12000F02DF8102070BD04F068
:10182000200008B12020F9E7FF20F7E7A08121423E
:1018300000802142100121422DE9F04107460C466B
:10184000154600200A490860384600F09DF9804698
:10185000002605E014F8010B00F096F9701CC6B2E2
:10186000AE42F7DB0120024908604046BDE8F08146
:10187000A481214270B505460C4600200749086046
:10188000284600F081F90646204600F07DF9012047
:101890000349C1F8A401304670BD0000A481214273
:1018A0000080214270B5002100230F22C47804B3C8
:1018B000154C246804F4E064C4F5E064210AC1F125
:1018C0000403CA40447804FA03F1847814402143A5
:1018D00009010E4C0678A155047804F01F05012477
:1018E000AC4005786D11AD0005F1E025C5F800416B
:1018F00009E0047804F01F050124AC40044D06788B
:10190000761145F8264070BD0CED00E000E400E0E3
:1019100080E100E002490143024A11607047000083
:101920000000FA050CED00E015481649C8600021DA
:1019300014480161144941611148124908600020AE
:101940004860114888601148886100210D48C161D4
:1019500001620F480F49C8600F490E4801610F49E5
:1019600041610B480B4908600B4848600B48886090
:101970000B4888610B490748C1610B4901627047F8
:1019800033333340E40000200AD7A33B6F12833A7D
:101990006666463F080100208FC2753CBC74133C4C
:1019A00066668640AE47E13D6F12033C014600206B
:1019B000034A506820F440400843506070470000DC
:1019C0000010024029B1064A52690243044B5A6191
:1019D00004E0034A52698243014B5A617047000098
:1019E0000010024029B1064AD2690243044BDA6171
:1019F00004E0034AD2698243014BDA617047000078
:101A00000010024029B1064A92690243044B9A61D0
:101A100004E0034A92698243014B9A6170470000D7
:101A20000010024030B500210022002400232D4D7B
:101A30006D6805F00C0121B1042905D0082923D1D6
:101A400005E0294D056022E0274D05601FE0254D8A
:101A50006D6805F47012234D6D6805F4803402251D
:101A600005EB92421CB9214D554305600BE01D4D1D
:101A70006D6805F400351DB11C4D5543056002E04D
:101A8000194D5543056002E0174D056000BF00BFCA
:101A9000144D6D6805F0F0010909154D6B5C056882
:101AA000DD4045600F4D6D6805F4E061090A104D99
:101AB0006B5C4568DD4085600A4D6D6805F46051DA
:101AC000C90A0B4D6B5C4568DD40C560054D6D680E
:101AD00005F44041890B074D6B5CC568B5FBF3F518
:101AE000056130BD0010024000127A0000093D007F
:101AF000140000202400002000B587B0012104203C
:101B0000FFF780FF01210803FFF77CFFE020ADF81D
:101B1000180018208DF81B0003208DF81A0006A964
:101B20001748FFF7F8F9E0211548FFF7D2FA00202F
:101B3000ADF804004FF48270ADF806000020ADF857
:101B400008000220ADF80A000120ADF80C004002A8
:101B5000ADF80E003820ADF810000020ADF81200EE
:101B60000720ADF8140001A9064800F065F801212E
:101B7000044800F047F8FF2000F006F807B000BD69
:101B8000000801400030014070B50546002405E022
:101B9000601CC4B2C82C01DD002070BD02210E48BB
:101BA00000F03CF80028F3D029460B4800F042F83A
:101BB000002405E0601CC4B2C82C01DD0020ECE765
:101BC0000121054800F02AF80028F3D0024800F06F
:101BD0002EF8C0B2E1E700000030014010B5044625
:101BE000074800884FF6C771084005490880084635
:101BF0000088204308800121014800F003F810BD4F
:101C00000030014021B1028842F04002028004E02D
:101C100002884FF6BF731A400280704702460020C8
:101C200013890B400BB1012000E0002070470146F2
:101C3000888970478181704710B50022028802F4BC
:101C400041520B884C8823438C882343CC88234300
:101C50000C8923434C8923438C892343CC89234318
:101C60001A430280838B4FF2FF74234083830B8AD5
:101C7000038210BD10B500F001F810BD0CB50020B6
:101C8000019000903348006840F48030314908608A
:101C900000BF3048006800F4003000900198401CFC
:101CA0000190009818B90198B0F5A06FF1D12948BA
:101CB000006800F4003010B10120009001E0002025
:101CC00000900098012843D12348006840F010009C
:101CD000214908600846006820F0030008600846B3
:101CE000006840F0020008601A48406819494860DE
:101CF0000846406848600846406840F48060486094
:101D00000846406820F47C1048600846406840F46B
:101D1000E81048600846006840F08070086000BF26
:101D20000C48006800F000700028F9D009484068AD
:101D300020F00300074948600846406840F0020070
:101D4000486000BF0348406800F00C000828F9D143
:101D50000CBD00000010024000200240042808D101
:101D60004FF0E021096941F004014FF0E0221161D8
:101D700007E04FF0E021096921F004014FF0E02273
:101D80001161704710B51348006840F00100114917
:101D9000086008464068104908400E4948600846F7
:101DA00000680E4908400B4908600846006820F4A6
:101DB000802008600846406820F4FE0048604FF428
:101DC0001F008860FFF756FF4FF00060044908606D
:101DD00010BD0000001002400000FFF8FFFFF6FEFB
:101DE00008ED00E000B587B001210420FFF7FAFDFF
:101DF0000020ADF816004720ADF810000020ADF827
:101E0000120044F61F60ADF8140004A9104800F059
:101E100085F86020ADF800000020ADF80800012032
:101E2000ADF8020041F28830ADF806006946084876
:101E300000F028F80121064800F00CF808210448B9
:101E400000F05EF80121024800F010F807B000BD74
:101E50000008004021B1028842F08002028004E0C4
:101E600002884FF67F731A400280704721B10288C2
:101E700042F00102028004E002884FF6FE731A402D
:101E80000280704770B5002200230024058C4EF6B6
:101E9000FF7635400584038C8488828B48F6FF7575
:101EA0002A404FF6FF452A400D884FF6FF7606EA96
:101EB00005252A434DF6FF752B400D8906EA0535A9
:101EC0002B434D8806EA05352B430B4DA84202D023
:101ED0000A4DA84208D14BF6FF752C408D894FF66C
:101EE000FF7606EA85152C4384808283CD88A0F88E
:101EF0004050038470BD0000002C014000340140BC
:101F00000A460021818B4FF2FF7319404FF6FF7391
:101F100003EA0223194381837047000000220288EC
:101F20001D4B98420ED01D4B98420BD0B0F1804F04
:101F300008D01B4B984205D01A4B984202D01A4B3E
:101F4000984204D14FF68F731A404B881A43174BAF
:101F5000984207D0164B984204D04FF6FF431A40E0
:101F6000CB881A4302808B8883850B8803850A4BB4
:101F700098420BD0094B984208D00E4B984205D09E
:101F80000D4B984202D00D4B984201D10B7A03863B
:101F90000123838270470000002C0140003401407F
:101FA0000004004000080040000C00400010004009
:101FB000001400400040014000440140004801403E
:101FC00010B540F224410F4800F091F8C8B101204B
:101FD0000D49087000210D48FEF72EFE09480488BF
:101FE000001D04880948FEF7D9FEC0F12000084909
:101FF000088020210548FEF749FF01210348FEF72C
:102000001BFE10BD00380140420000205800024075
:102010004400002010B586B0044601210420FFF7DB
:10202000F1FC01218803FFF7EDFC18208DF8170063
:102030004FF40070ADF8140001208DF8160005A9CA
:102040001E48FEF768FF04208DF817000002ADF867
:10205000140001208DF8160005A91848FEF75BFF53
:1020600001940020ADF810000C20ADF80E00002007
:10207000ADF80C00ADF80A00ADF8080001A9104851
:1020800000F084F801210E4800F01CF8012240F213
:1020900024410B4800F055F825208DF80000012060
:1020A0008DF8030003208DF8010000208DF8020058
:1020B0006846FFF7F7FB06B010BD000000080140BE
:1020C0000038014021B1828942F40052828104E04B
:1020D00082894DF6FF731A40828170471AB1838A54
:1020E0000B43838202E0838A8B438382704770B5FF
:1020F0000246002400230025002040F66A16B14263
:1021000000D100BFC1F3421501F01F03012606FAFA
:1021100003F3012D02D19689334006E0022D02D14E
:10212000168A334001E0968A33400C12012606FAE3
:1021300004F41688344013B10CB1012000E00020F3
:1021400070BDF0B50346002400260025002040F6AF
:102150006A17B94200D100BF1846C1F3421401F01A
:102160001F06012707FA06F5012C01D10C3004E007
:10217000022C01D1103000E014301AB107682F434F
:10218000076002E00768AF430760F0BD2DE9F04744
:1021900086B005460E460024A24600BFA146002791
:1021A000B08900B100BF2F462C8A4CF6FF70044066
:1021B000F08804432C82AC894EF6F3100440B088BA
:1021C00031890843718908430443AC81AC8A4FF6D6
:1021D000FF400440B0890443AC8201A8FFF722FC11
:1021E0001F48874202D1DDF810A001E0DDF80CA005
:1021F000A88900F4004040B10AEBCA0000EB0A10C5
:1022000031684900B0FBF1F807E00AEBCA0000EBC7
:102210000A1031688900B0FBF1F86420B8FBF0F0D7
:1022200004012009642101FB1089A88900F4004001
:1022300040B1322000EBC900B0FBF1F000F0070024
:10224000044308E0322000EB09106421B0FBF1F0F8
:1022500000F00F0004432C8106B0BDE8F0870000B9
:102260000038014000BFFEE700B585B001214802FB
:10227000FFF7C8FB00208DF8050003904FF42020E5
:1022800002900020009004208DF8100001208DF8AD
:10229000040069461F48FEF705F801211D48FDF7B7
:1022A000CCFF01211B48FDF7D3FF4FF40040FFF79F
:1022B0007DFB0623012200211648FEF71BF80623AA
:1022C000022201211348FEF715F8062303220221FA
:1022D0001048FEF70FF80623042203210D48FEF7ED
:1022E00009F80C48FEF762F800BF0A48FDF7D0FF76
:1022F0000028FAD10748FEF75EF800BF0548FDF751
:10230000BDFF0028FAD101210248FDF7ACFF05B05E
:1023100000BD00000024014000B58DB00121084639
:10232000FFF750FB1E48FEF793FC042005900020A9
:1023300004900C9020200A90C0010B901948039043
:102340004FF4806009908020079017480290801514
:1023500008900020069002A91148FEF742FD0220D5
:10236000FEF75CFC012202210D48FEF731FD012140
:102370000B48FEF761FC4FF4A060FFF7CBFA0B208F
:102380008DF8040000208DF8050001208DF806006E
:102390008DF8070001A8FFF785FA0DB000BD000019
:1023A00008000240280000204C24014008B501210B
:1023B0000420FFF727FB00208DF803000F20ADF865
:1023C000000069460148FEF7A6FD08BD000801406F
:1023D00010B5FFF7EBFFFFF747FFFFF79DFFFFF794
:1023E00001FD10BD10B514484078022822D101200B
:1023F000FFF76AF8012805D1A120104908701A20BA
:10240000887010BD0120FEF7FBFF032803D1A12037
:102410000A49087002E00020084908700120FEF710
:10242000EFFF022803D11A200449887002E000203F
:102430000249887000BFE4E7360000203000002029
:1024400010B56FF00400FFF789FC0A4800680A49DC
:10245000B0FBF1F0094908700846007800EB400134
:10246000C1EBC0104FF6FF7101EAC00004490880BB
:1024700010BD00000000002000127A00460000207D
:10248000480000200146114A12884A434FF0E023D9
:102490005A6100229A611A46126942F001021A61D9
:1024A00000BF4FF0E022106900F001021AB100F401
:1024B0008032002AF5D04FF0E022126922F00102AA
:1024C0004FF0E0231A6100229A6170474800002013
:1024D0004FF4A060FFF71EFA0E4800F01DF8FFF75A
:1024E000AFFFFFF72DF8FEF76DFF00BFFFF7A0F875
:1024F0000028FBD1FFF738F9FFF716FAFFF768FF5E
:1025000007E0FEF709FBFFF76DFFFFF733F8FDF774
:1025100057FFF6E720A1070010B58CB00446012153
:102520000846FFF74FFA2046FFF774FD3A48FEF7DA
:102530008FFB20200490002003900B9009904FF413
:1025400080500A9035480290002008908020069024
:102550003348019000200790059001A92E48FEF70E
:1025600040FC2D481438FEF773FB20200490102007
:10257000039000200B9009904FF480500A90294856
:1025800002900020089080200690254801900020AD
:102590000790059001A920481438FEF722FC0F206F
:1025A0008DF8000003208DF8010001208DF8020055
:1025B0008DF803006846FFF775F90E208DF80000CE
:1025C00003208DF8010002208DF802006846FFF715
:1025D00069F90122022110481438FEF7F9FB0122A3
:1025E00002210D48FEF7F4FB01210B481438FEF7D9
:1025F00023FB01210848FEF71FFB01224021084868
:10260000001FFFF76BFD012280210548001FFFF727
:1026100065FD0CB010BD000058000240C400002051
:1026200004380140A400002090EA010F48BF81F067
:10263000004100F1A081421A3CBF801A89184FEA7C
:10264000D0524FF07F4C1CEA410FA2EBD15318BF80
:102650009CEA026F00F03B804FF0004C4CEA0020F7
:102660004CEA012121FA03FC10EB0C0C1ED202F102
:10267000FF325FEA1C2040EBC25038BF70471CF0AD
:102680007F0F4FEA400C18BFBCF17F4F38BF704737
:10269000C3F12003994008BF20F00100BCF17F4F37
:1026A00038BF7047A0F1C04000F04FB94FEA3C007E
:1026B000000A40EBC25028BF1CF0FF0F4FEA400C4D
:1026C000E6D018BFBCF17F4F38BF7047EAE79CEAFD
:1026D000026F05D010EA5C0F08BF00F000407047A1
:1026E00010B500F0ECF800BF64FBBE3E41000B0EDD
:1026F000D3F19E0208D950F400034FEA032323FAD2
:1027000002F048BF4042704710B500F0D8F800BF53
:1027100049922480002070476FF0004282EA200036
:1027200070470000C10DD1F19E0206DB4FEA002385
:1027300043F0004323FA02F07047004207D54FEA06
:102740004001B1F1FE4F02D24FF00000704710B5CA
:1027500000F0B5F849922480002070476FEA20000D
:102760007047000010F0004148BF4042B0FA80F3CB
:1027700010FA03F2C3F19D030BD051EAC35101EBF0
:102780001220530638BF704700F1010008BF20F047
:1027900001007047B0FA80F310FA03F2C3F19D0311
:1027A0000AD0D90501EB1220530638BF704700F15B
:1027B000010008BF20F00100704700004FF47F0CBB
:1027C0001CEAD0121EBF1CEAD11392EA0C0F93EA46
:1027D0000C0F00F0478090EA010F48BF42F480726E
:1027E0004FF0004C4CEA00204CEA012102EB0302BE
:1027F000A0FB0113A2F50002002918BF43F001035A
:102800005B0028BF4FEA330342EB22425FEA132CFE
:102810004CEBC2502EBFBCEB436FB2F57C0F704740
:102820004FEA036CBCF1004F08BF20F00100B2F585
:102830007C0F38BF70470BD582F0FF0212F5803F46
:10284000C8BF704700F1C040D8BF00F000407047DB
:1028500000F5000C5FEA4C0C48BF7047B0F1C04077
:1028600000F073B890EA010F0CEAD11348BF42F4AC
:102870008072624538BF634504D280EA010000F0EF
:102880000040704710B500F01AF800BF8900013E03
:1028900000F007B800F009B85FEA410C5FEA1C6C71
:1028A00008D080EA010000F050B85FEA400C5FEA0F
:1028B0001C6CF6D14FF00040A0F5800070470EF17F
:1028C000020E2EF0030E5EF8044B244204D44FEAAD
:1028D0004102B2F17F4F11D84FEA4003B3F17F4F6D
:1028E0000CD80ED14FEAD07CB2F17F4F0CEB4C0CE0
:1028F0000CF1020C08BF4CEBD17C04E04FF0080C4B
:1029000001E04FEAD17C0CEB4C0324FA03F404F011
:102910000704B4F1040C06D20EEB840CBDE81040A1
:102920004CF0010C6047DFE80CF0070802024FF0A2
:102930000040A0F5800010BD0846420018BFD2F14B
:10294000807288BF00F0004010BDFF2141EAD050E6
:10295000C005704780F0004090EA010F7FF56BAE34
:1029600081F0004100F007B890EA010F48BF81F004
:1029700000413FF560AE421A04D882F00042A0EB5D
:10298000020011444FEAD0524FF07F4C1CEA410F35
:10299000A2EBD15318BF9CEA026F4AD04FF0004C13
:1029A0004CEA00204CEA012121FA03FCB0EB0C0CAC
:1029B0000FD412F0FE0F36D05FEA4C001DD5001286
:1029C00040EBC25038BF70471CF03F0F18BF704734
:1029D0000BE0A2F101025FEA1C2040EBC25038BFBD
:1029E00070471CF07F0F18BF7047C3F12003994058
:1029F00014BF401E20F00100704780084FEA1223E8
:102A000008BF7047B0FA80FCA2EB0C02CCF1280C96
:102A100060FA0CF093EA122F04BF00EBC25070472B
:102A20004FEAC3707047130A5FEADC1008BF7047B3
:102A3000F6E79CEA026F04D010EA5C0F08BF0020A2
:102A4000704710B5FFF73BFF40DFF63E81F00040D6
:102A50007047344310100134431010017C2A0008E1
:102A6000000000204C00000028010008C82A0008CF
:102A70004C000020440700004401000800A24A0462
:102A8000000000000000000001020304060708091E
:102A90000000000001020304010203040607080904
:102AA0000204060800000000000000000000000012
:102AB000010101013443101001040E18220000002E
:082AC00000000000000000000E
:04000005080000ED02
:00000001FF
