:020000040800F2
:10000000680F0020F101000809360008CD2B000818
:10001000A9350008711E0008474C000800000000C8
:10002000000000000000000000000000094200087D
:100030000529000800000000A93C00081D43000835
:100040000B0200080B0200080B0200080B0200085C
:100050000B0200080B0200080B0200080B0200084C
:100060000B0200080B0200080B0200080B0200083C
:100070000B0200080B0200080B0200080B0200082C
:100080003D260008712600080B0200080B0200083C
:100090000B0200080B0200080B0200080B0200080C
:1000A0000B0200080B0200080B0200080B020008FC
:1000B0000B020008814300080B0200080B02000835
:1000C0000B0200080B0200080B0200080B020008DC
:1000D0000B020008154900089D4900080B020008A2
:1000E0000B0200080B0200080B0200080B020008BC
:1000F0000B0200080B0200080B0200080B020008AC
:100100000B0200080B0200080B0200080B0200089B
:100110000B0200080B0200080B0200080B0200088B
:100120000B0200080B0200080B0200080B0200087B
:1001300000F002F800F04DF80AA090E8000C8244AC
:100140008344AAF10107DA4501D100F042F8AFF289
:10015000090EBAE80F0013F0010F18BFFB1A43F0A5
:1001600001031847B8910000D8910000103A24BF4D
:1001700078C878C1FAD8520724BF30C830C144BF0C
:1001800004680C607047000000230024002500264E
:10019000103A28BF78C1FBD8520728BF30C148BFEA
:1001A0000B607047662908F0DA85642900F04E80FC
:1001B000782900F08780002070471FB500F0F8FB19
:1001C00004000020002107F09DFCE0601FBD10B579
:1001D00010BD00F009FD1146FFF7EFFF06F098FE95
:1001E00000F027FD03B4FFF7F2FF03BC05F0BAF8F7
:1001F0000948804709480047FEE7FEE7FEE7FEE7BB
:10020000FEE7FEE7FEE7FEE7FEE7FEE704480549F6
:10021000054A064B704700002143000831010008E1
:1002200068090020680F0020680B0020680B002080
:10023000704700000FB4044910B503AA029800F0FB
:10024000A5FB10BC5DF814FBCC0000202DE9F041AB
:100250000646002410687529314616A510D0AFF364
:100260000080002802DA404213A507E031688A07BF
:1002700001D512A502E0490704D511A5012401E02A
:10028000AFF3008000210A2206F1240709E0B0FB49
:10029000F2FCB0FBF2F302FB1C003030785418463D
:1002A000491C0028F3D123462A463046BDE8F041D8
:1002B00000F006B9000000002D0000002B00000037
:1002C0002000000070B504460D4621461068AFF3CB
:1002D00000802188090502D50F4A7A4402E00E4ABF
:1002E0007A440E32002104F1240305E000F00F06E9
:1002F0000009965D5E54491C0028F7D12078002340
:10030000000704D5702D02D009B102231132204616
:10031000BDE8704000F0D4B8AA8C00002DE9F05F71
:10032000894604464FF0000ADFF824B1FB44C0F8C8
:1003300020A02046E168884700287DD0252806D0E7
:10034000D4E901219047206A401C2062F1E7002592
:100350005F462046E16888472028064607DB312EA5
:1003600005D2B81910F8200C08B10543F1E7A80729
:1003700001D525F00405C4F81CA00027C4F818A076
:100380002A2E09D0304604F0DFFF38B304EB87088B
:10039000303EC8F8186019E059F8041B204604EBF9
:1003A00087029161E1688847012F064618D1E0690C
:1003B000002820DA25F020051DE0D8F8180000EB11
:1003C000800006EB40003038C8F818002046E1688D
:1003D0008847064604F0B8FF0028EED1012F0AD066
:1003E0002E2E08D12046E16888477F1C0646022F42
:1003F00045F02005C4DBA069002803DA404245F03F
:100400000105A061E80701D025F01005A6B1A6F10D
:100410004100192802D8203645F400654A46314685
:10042000204625604D46FFF7BDFE60B1012807D08C
:10043000ED1D25F0070000E007E000F1080978E76E
:1004400005F1040975E730467AE7206ABDE8F09FB8
:10045000808C00004FF0000200B51346944696468B
:10046000203922BFA0E80C50A0E80C50B1F12001C7
:10047000BFF4F7AF090728BFA0E80C5048BF0CC075
:100480005DF804EB890028BF40F8042B08BF7047D3
:1004900048BF20F8022B11F0804F18BF00F8012B45
:1004A0007047704770477047704710B500F084FA86
:1004B000006810BD10B5044600F07EFA046010BD5F
:1004C0002DE9F0470D4699469246044600F124086E
:1004D0000168880604D5E06921F01001216000E080
:1004E0000120A84201DD471B00E00027A1697A191D
:1004F00002EB0900081AA0612078C00602D4204649
:10050000AFF30080002608E0D4E901211AF80600C4
:100510009047206A401C761C20624E45F4DB207810
:10052000C0060AD52046AFF3008006E0D4E90121D9
:1005300030209047206A401C2062381EA7F1010736
:10054000F4DC07E0D4E9012118F805009047206A9F
:10055000401C2062281EA5F10105F3DC2046AFF304
:1005600000802078000602D50220BDE8F087012037
:10057000FBE770472DE9FF4F0C461E464FF0FF3753
:100580008BB0D2E90001DDF860800A908A46C1F3A1
:100590000A5505B93D46002108464FF00000BAF162
:1005A000000F00F4400005DA00EB80004FF440013A
:1005B00001EA50004FEA9059B9F1010F00DDB94648
:1005C0000A9850EA4A000ED044F61050A5F2FF35C2
:1005D00045432F14B8F1000F1ED07542291E1EDDB1
:1005E000C9F100021CE0B8F1010F4FF0000001D08A
:1005F000302103E0F24305E02154401CB042FBDB14
:1006000030460022002121540B99C1F80880C1E92D
:1006100000200FB0BDE8F08FBD1B6D1CDEE74A4621
:1006200000DA694206A800F069FA06AB93E8070011
:1006300003AB83E8070050460A9900F041FB8DE8C0
:100640000700A0F500501F3800900398002D09DD29
:1006500042F21F014A46084403A90390684600F08D
:10066000A0FD08E0A0F500504A461F3803A90390FA
:10067000684600F0AAFD8DE807000004000C03D0D6
:100680004FF0FF30410800E01046B8F1000F03D0F2
:100690000022009215461EE0751E05D400F090F968
:1006A000303262556D1EF9D5B3460122084302D09F
:1006B00000227F1C04E02078302801D100227F1E18
:1006C000002A099786D01DE0112D07DA00F078F98D
:1006D000303262556D1C50EA0102F5D1084302D058
:1006E0000098C8B10EE00021681E05E0235C625C42
:1006F00063542254401E491C8142F7DBAB46A81BC1
:10070000401E0990002004F80B000B98099AC0F8CD
:100710000880C0E9002B7CE711264FF0000859E75C
:100720002DE9F04F88460446D21D22F0070191B012
:10073000D1E90001CDE90A0104F0CFFA02460B9895
:10074000C00F01D02D2007E02068810701D52B20A4
:1007500002E0202101EAC000032A099001D0072A03
:1007600005DB03464146204600F088F90BE120787E
:10077000800601D5E06900E00620B8F1650F8146EA
:1007800006D0B8F1660F18D0B8F1670F70D131E01C
:100790000020B9F1110F009001DB112301E009F1F4
:1007A00001030AAA01A90CA8FFF7E4FEDDE90C7019
:1007B000002609F10105834647E001204B460090E1
:1007C0004FF000470AAA01A90CA8FFF7D3FEDDE904
:1007D0000DB00C995D46002610B909F101000D1805
:1007E000B9EB050003D4C0F1FF3609F10105A5EB13
:1007F00009002BE0B9F1010F01DA4FF001090020E7
:10080000B9F1110F0090484601DD112300E00346C5
:100810000AAA01A90CA8FFF7ADFEDDE90C704D4650
:1008200000268346207800070AD4AB4500DA5D46EF
:1008300001A8012D04DD411911F8011C302907D050
:100840004F4502DA17F1040F04DA012082460FE067
:100850006D1EEEE7002F02DCED1B3E4403E0781C2A
:10086000A84200DD7D1CB81B00F1010A4FF00047D3
:100870002078000703D4AA4501DB4FF0FF3A00219E
:10088000B7F1004F0DF143088DF8431024D002203A
:100890002B23002F01DA7F422D230A21021EA0F113
:1008A000010000DC5FB197FBF1FC97FBF1F201FB6B
:1008B0001C7C17460CF1300C08F801CDEEE7A8F1CE
:1008C000010003702188090501D5452100E065215B
:1008D000A0F1010800F8011C09980FA9A1EB080775
:1008E000FF1D00B10120411901EBEA70A1693844F4
:1008F000081A401EA0612078C00602D42046AFF33B
:100900000080099828B1D4E901219047206A401C51
:1009100020622078C00622D52046AFF300801EE07A
:10092000002E04DBB34502DD01A8805D00E030202D
:10093000D4E901219047206A401C2062761CAAF16C
:1009400001005FEA000A0AD100F032F8C0680168CD
:10095000405CD4E901219047206A401C2062281E97
:10096000A5F10105DCDC07E0D4E9012118F8010B51
:100970009047206A401C2062381EA7F10107F3DC73
:100980002046AFF30080032011B043E6074B70B55B
:100990000D467B4400F05FF80446284600F01CF941
:1009A00010B14FF0FF3070BD204670BD7F57000082
:1009B00000487047240900200048704704090020BF
:1009C00030B5B0F10A024FEA900E71F100034EEA21
:1009D000817EB0EB0E0061EB91014FEA101E4EEAF2
:1009E000017E10EB0E0041EB11114FEA102E4EEA82
:1009F000016E10EB0E0041EB11214FEA104E4EEA52
:100A0000014E10EB0E0041EB1141401841F1000185
:100A10004FEAD00040EA41704FEAD10110EB800567
:100A20004FEA810444EA907444EB01046D1944EBED
:100A30000404521BA3414FF0000348BF0A3200D503
:100A400030BD401C41F1000130BD000001694A1C6D
:100A500002610878704700B58FB0CDE901310021FF
:100A6000059105497944CDE9031011466846FFF721
:100A700055FC0FB000BD0000E5FFFFFF2DE9F04180
:100A80001F46044603260168072A01F4006004DBC0
:100A900008B116A505E016A503E008B115A500E00C
:100AA00015A521F010002060A069C01EA0610FB143
:100AB000401EA0612046AFF300804FB1D4E9012170
:100AC00038469047206A401C2062C01C206206E025
:100AD000206AFAE7D4E9012115F8010B9047761E48
:100AE000F8D22046AFF30080BDE8F0814E414E00C1
:100AF0006E616E00494E4600696E66002DE9F04752
:100B0000814616468AB0334878440DC88DE80D00FA
:100B100030487844801C03AC0DC884E80D0041F6D1
:100B20009B300844372190FBF1F290FBF1F5A5F1E1
:100B3000800501FB12041B3C02D56442012000E049
:100B40000020DFF890A080460027FA44AAF1BE0AF0
:100B50000DE0E00709D03246684607EB47010AEB93
:100B6000810100F032FB8DE8070064107F1C002C2F
:100B7000EFD1184F7F44AC3F18E0E80714D007EBE3
:100B800004100DF1180A90E80E008AE80E00C06803
:100B9000F04201D198190890324606A903A800F046
:100BA00014FB03AB83E807006D10641C002DE4D137
:100BB00032466946B8F1000F03A802D000F0F1FAFE
:100BC00001E000F002FBC9E90001C9F808200AB001
:100BD000BDE8F08748870000007B00F08000704788
:100BE00000487047040900207546FFF7F9FFAE463C
:100BF00005006946534620F00700854618B020B529
:100C0000FFF704FBBDE820404FF000064FF000075F
:100C10004FF000084FF0000B21F00701AC46ACE8A4
:100C2000C009ACE8C009ACE8C009ACE8C0098D4611
:100C300070470446AFF300802046FFF7D3FA000068
:100C40004FF0013C50F8042B51F8043B9A4221D15B
:100C5000A2EB0C03934313EACC1317D150F8042BE7
:100C600051F8043B9A4215D1A2EB0C03934313EACB
:100C7000CC130BD150F8042B51F8043B9A4209D104
:100C8000A2EB0C03934313EACC13DBD04FF000002C
:100C9000704700BFD01A01BAB1FA81F101F0180112
:100CA00022FA01F0CB40C1F12001DBB2C0B2C01A80
:100CB0002CFA01F3D11A914311EAC311E6D170471E
:100CC0005FEA400C08BF91F0000F4FEA8C234FEA17
:100CD000C12243EA51514FEA1C5018BF00F5F040C1
:100CE0004FEA300018BF41F000415FEA6C5C00F051
:100CF0002980BCF1FF3F08BF40F080407047130CD3
:100D000006BF12044FF0100C4FF0000C130E04BF7E
:100D100012020CF1080C130F04BF12010CF1040CA9
:100D2000930F04BF92000CF1020CD30F04BF5200CA
:100D30000CF1010C11464FF00002A0F11F00A0EBD6
:100D40000C00704711F0004F08BF704731F00041B0
:100D50003FF4D5AF0B0C06BF09044FF0100C4FF059
:100D6000000C0B0E04BF09020CF1080C0B0F04BFA2
:100D700009010CF1040C8B0F04BF89000CF1020C6B
:100D8000CB0F04BF49000CF1010CCCF12003A0EB08
:100D90000C0022FA03F302FA0CF241EA030100F11B
:100DA0000100704720F07F4C80EA030023F07F476A
:100DB000ACEB070303F57C5300F0004003F1FF03A5
:100DC0002DE980494FEA154B09B44FEA144325EA4F
:100DD0000B4E24EA03480FF2042606EB13274908BA
:100DE0003E785FEA320203FB0667C7F5000707FBA0
:100DF00006F64FEA54374FEAD64606F1020607FBDD
:100E0000066CCCF1005C4FEA1C472CEA074C07FB50
:100E100006F40CFB06F504EB15464FEA961634BFB4
:100E200000204FF000404FEAD13706FB07FC4FEAA5
:100E30001C4C0CFB0BF7D21B03FB0CF761EB0701FF
:100E40000CFB0EF7B0EB074072EB17420CFB08F7F8
:100E500034BFA2EB0742B2EB074261EB17414FEA06
:100E60000C444FEA910706FB07FC4FEA1C4C0CFBB5
:100E70000BF7B0EBC74072EB573203FB0CF734BFF4
:100E8000A2EBC742B2EBC74261EB57310CFB0EF746
:100E9000B0EBC70072EB57720CFB08F734BFA2EB44
:100EA000C702B2EBC70261EB5771039F4FEA816142
:100EB00041EA921104EBCC044FEAD1374FEA826247
:100EC00006FB07FC42EA90124FEA80604FEA1C4C96
:100ED0000CFB0BF7D21B03FB0CF761EB07010CFBC0
:100EE0000EF7B0EB074072EB17420CFB08F734BF6C
:100EF000A2EB0742B2EB074261EB17414FEA8C5578
:100F00004FEA910704EB9C2406FB07FC4FEA1C4CBC
:100F10000CFB0BF7B0EBC74072EB573203FB0CF73F
:100F200034BFA2EBC742B2EBC74261EB57310CFBB7
:100F30000EF7B0EBC70072EB57720CFB08F734BF2B
:100F4000A2EBC702B2EBC70261EB577115EB4C2560
:100F50004FEA816141EA92114FEA82624FEAD1374A
:100F600042EA901206FB07FC44F100044FEA80605D
:100F70004FEA1C4C0CFB0BF7D21B03FB0CF761EB8D
:100F800007010CFB0EF7B0EB074072EB17420CFBAE
:100F900008F734BFA2EB0742B2EB074261EB1741FF
:100FA00015EB1C154FEA813141EA92414FEA82323A
:100FB00042EA90424FEA80304FEA0C7644F1000456
:100FC00048EA03434EEA0B484FF0000EB2EB080C20
:100FD00071EB030724BF624639464EEB0E0E4FF00D
:100FE000000B0018524149414BEB0B0BB2EB080CC4
:100FF00071EB03077BF1000B24BF624639464EEBD1
:101000000E0E4FF0000B0018524149414BEB0B0BF9
:10101000B2EB080C71EB03077BF1000B24BF6246B7
:1010200039464EEB0E0E51EA020718BF46F0010694
:1010300016EB0E7655F1000254F1000103D5BDE820
:101040008901BDE80088BDE88901BDE80048B619FE
:10105000524141EB0101A3F10103704780807F7E83
:101060007D7C7B7A7978777676757473727171701E
:101070006F6E6E6D6C6C6B6A6A69686867666665D0
:101080006464636362616160605F5F5E5E5D5D5C5E
:101090005C5B5B5A5A5959585857575656555555CF
:1010A0005454535352525251515050504F4F4F4E2F
:1010B0004E4D4D4D4C4C4C4B4B4B4A4A4A4949497D
:1010C00048484847474747464646454545444444BF
:1010D000444343434342424242414141002B26D4D0
:1010E000770021D01CB54FEA370703B44FF010004A
:1010F0004FF010014FF000000FBCBDE810400BF1A5
:10110000010BBBF1010F08BF5FEA170722BF12F105
:10111000010211F101014FF0004143F1000300F021
:10112000004043EA00007047F9D35708DAE746EA7F
:10113000064613F1400F4FEA16461FDD13F1200F4C
:10114000DFBF16430A46002120335B42C8D0C3F1FB
:10115000200746EA064602FA07F74FEA164646EA2D
:101160000706C3F1200722FA03F201FA07F721FA72
:1011700003F14FF0000342EA0702B1E746EA020634
:1011800046EA06464FEA164646EA0106BCBF46EA6C
:101190000646360C4FF000034FF000024FF00001FE
:1011A0009EE72DE9C048934630B491E8380007C85F
:1011B00031EA400C48BF34EA430C03D5FFF7F2FD97
:1011C000FFF78CFFF0BCBDE800882DE9C0489346CE
:1011D00030B491E8380007C810F0804F08BF13F012
:1011E000804F03D100F005F8FFF778FFF0BCBDE8B1
:1011F000008820F07F4780EA030023F07F4C07EB54
:101200000C03A3F57C5300F00040A3F1FE0392F021
:10121000000F00F0B38095F0000F00F077802DE90B
:1012200001494FEA11404FEA144621EA004800FB09
:1012300006FC24EA064708FB06F607FB08F800FB55
:1012400007F718EB06484CEB164C4FEA124B18EB1D
:1012500007484FEA15464CEB174022EA0B4E0BFBB2
:1012600006FC25EA06470EFB06F607FB0EFE0BFB07
:1012700007F71EEB064E4CEB164C4FF000061EEB2C
:10128000074E4CEB174B18EB0B0840F1000018EB26
:101290000E0B58EB000840F100008F1A4FF00001D0
:1012A0003CBFC943661B14BFB5EB040C00213CBF17
:1012B000C943F61B4FEA17444EEA8E0E27EA04454F
:1012C0004FEA1C4704FB07622CEA074C05FB07F7B3
:1012D0000CFB05F604FB0CFC16EB074642EB174231
:1012E00016EB0C4642EB1C421BEB060658EB0202C7
:1012F000414146EA9E0601D5BDE80189B619524131
:1013000041EB0101A3F10103BDE801894FEA144556
:101310004FEA114724EA054621EA074C05FB07F48A
:1013200006FB07F70CFB06F105FB0CFC11EB074174
:1013300044EB17444FEA124711EB0C4144EB1C44B9
:1013400022EA074C05FB07F206FB07F70CFB06F643
:1013500005FB0CFC16EB074642EB174216EB0C465E
:1013600042EB1C456A1854F1000148BF7047B6199A
:10137000524141EB0101A3F10103704795F0000FC9
:1013800037D04FEA11424FEA144721EA024624EAD5
:10139000074C02FB07F106FB07F70CFB06F402FB08
:1013A0000CFC14EB074441EB17414FEA154714EBD3
:1013B0000C4441EB1C4125EA074C02FB07F506FBF8
:1013C00007F70CFB06F602FB0CFC16EB074645EB99
:1013D000174516EB0C4645EB1C42121951F1000162
:1013E00048BF7047B619524141EB0101A3F1010317
:1013F00070474FEA14454FEA114724EA054621EAAF
:10140000074C05FB07F106FB07F70CFB06F24FF054
:10141000000605FB0CFC12EB074241EB174112EBF7
:101420000C4251EB1C4148BF7047921841EB01013F
:10143000A3F10103704721B1826842F0010282608A
:1014400003E0826822F001028260704721B1826865
:1014500042F48072826003E0826822F480728260CB
:101460007047000010B504461248844208D101219B
:10147000401502F087FD0021601502F083FD17E0A2
:101480000D48844208D10121001502F07BFD0021A6
:10149000201502F077FD0BE00848844208D10121B5
:1014A000C80302F06FFD00214FF4004002F06AFD16
:1014B00010BD00000024014000280140003C014014
:1014C000014600208A6802F004020AB1012000E00F
:1014D00000207047014600208A6802F008020AB125
:1014E000012000E00020704730B5024600200023B4
:1014F00050680F4C20400D790C6844EA05242043C5
:10150000506090680B4C2040D1E902542C434D7937
:1015100044EA450420439060D06A20F470000C7CBB
:10152000641EE4B2234340EA0350D06230BD0000A1
:10153000FFFEF0FFFDF7F1FFF0B504460D46002079
:101540000021092D11DDE068A5F10A0606EB46072A
:10155000072606FA07F18843A5F10A0606EB4606B8
:1015600003FA06F10843E0600CE0206905EB45074B
:10157000072606FA07F1884305EB450603FA06F14C
:1015800008432061072A0FDA606B561E06EB8607B8
:101590001F2606FA07F18843561E06EB860605FA53
:1015A00006F10843606322E00D2A0FDA206BD61F94
:1015B00006EB86071F2606FA07F18843D61F06EBBF
:1015C000860605FA06F10843206310E0E06AA2F1FE
:1015D0000D0606EB86071F2606FA07F18843A2F1DF
:1015E0000D0606EB860605FA06F10843E062F0BD3B
:1015F000816841F008018160704721B1826842F43E
:10160000A002826003E0826822F4A0028260704738
:10161000816841F004018160704700001CB51448E6
:101620000078401C12490870087800EBD07149100E
:10163000A0EB410149B9002000900E4B0190DA6AFD
:10164000596A986A002300F0AFF909490878C11770
:1016500000EB91718910A0EB810109B900F00CF841
:1016600003480078642802DD0020014908701CBD91
:10167000A6000020B802002000B589B029480078F3
:1016800001284CD1002005E02749095C01AA11542A
:10169000411CC8B22028F7DB9DF80400AA283BD1E2
:1016A0009DF80500AF2837D19DF80600122822D0FA
:1016B00008DC01280DD0022810D0102813D01128E2
:1016C00029D114E013281AD014281CD0152822D1AF
:1016D0001DE09DF8080000F0CDFB1CE09DF808001F
:1016E00000F0CCFB17E001A800F002FA13E001A81B
:1016F00000F076FA0FE001A800F0F2FA0BE001A882
:1017000000F0F5FA07E001A800F0F8FA03E001A8FC
:1017100000F0FBFA00BF00BF00200249087009B0CA
:1017200000BD000054000020000200202DE9F0411F
:1017300006460F460024A046AA222146641C1648ED
:1017400042542146641C4254EF222146641C4254F8
:1017500000222146641C42542146641C4654214602
:10176000641C4754201F0C49C870002506E00A4835
:10177000405D404400F0FF08681CC5B2A542F6DB9E
:101780002046611CCCB2044901F800802146024881
:1017900001F080F8BDE8F081A80600202DE9FC5F8B
:1017A00006460F4690469946DDF830B00024A24622
:1017B000AA222146641C7A4842542146641C4254A1
:1017C00006F10F00C2B22146641C75484254002243
:1017D0002146641C42547349384607F043F900908F
:1017E00007F0A4F800B201909DF805202146641C82
:1017F0006B4842549DF804202146641C42546949B8
:10180000404607F02FF9009007F090F800B20190E1
:101810009DF805202146641C614842549DF804202F
:101820002046611CCCB25E490A545E49484607F026
:1018300019F9009007F07AF800B201909DF80520A0
:101840002046611CCCB256490A549DF8042020461B
:10185000611CCCB252490A545249584607F002F969
:10186000009007F063F800B201909DF80520204633
:10187000611CCCB24A490A549DF804202046611CE0
:10188000CCB247490A5447490D9807F0EBF800904D
:1018900007F04CF800B201909DF805202046611C2D
:1018A000CCB23F490A549DF804202046611CCCB2BA
:1018B0003B490A543B490E9807F0D4F8009007F0D2
:1018C00035F800B201909DF805202046611CCCB28D
:1018D00033490A549DF804202046611CCCB230499B
:1018E0000A5430490F9807F0BDF8009007F01EF831
:1018F00000B201909DF805202046611CCCB2284919
:101900000A549DF804202046611CCCB224490A5494
:101910002449109807F0A6F8009007F007F800B2E5
:1019200001909DF805202046611CCCB21C490A5448
:101930009DF804202046611CCCB219490A5419496B
:10194000119807F08FF8009006F0F0FF00B20190B8
:101950009DF805202046611CCCB211490A549DF81F
:1019600004202046611CCCB20D490A54201FC870C7
:10197000002506E00A48405D504400F0FF0A681C5C
:10198000C5B2A542F6DB2046611CCCB2044901F881
:1019900000A02146024800F07DFFBDE8FC9F00004A
:1019A000A806002000007A442DE9FE4F81460D462E
:1019B00016461F46DDE90CAB0024642078430190F5
:1019C000AA222146641C484842542146641C4254C1
:1019D00001222146641C425400222146641C4254C8
:1019E0004249484607F03EF8009006F09FFF00B2DB
:1019F00002909DF809202146641C3B4842549DF802
:101A000008202146641C42543849284607F02AF829
:101A1000009006F08BFF00B202909DF8092021464D
:101A2000641C314842549DF808202046611CCCB209
:101A30002D490A542D49304607F014F8009006F05D
:101A400075FF00B202909DF809202046611CCCB2BF
:101A500025490A549DF808202046611CCCB2224931
:101A60000A549DF807202046611CCCB21E490A5436
:101A70009DF806202046611CCCB21B490A549DF8F3
:101A800005202046611CCCB217490A549DF8042059
:101A90002046611CCCB214490A542046611CCCB2C9
:101AA000114901F800A02046611CCCB20E4901F892
:101AB00000B0201FC8704FF00008002006E00A495F
:101AC000095C414401F0FF08411CC8B2A042F6DBAA
:101AD0002046611CCCB2044901F80080214602482E
:101AE00000F0D8FEBDE8FE8FA80600200000C84226
:101AF00070B504466179227941EA022006F052FF6E
:101B00000546354906F0AEFF3449C863E179A2794C
:101B100041EA022006F046FF05462F4906F0A2FFE3
:101B20002E490864617A227A41EA022006F03AFFDF
:101B30000546294906F096FF28494864E17AA27AC9
:101B400041EA022006F02EFF0546234906F08AFFEF
:101B500022490860617B227B41EA022006F022FFD5
:101B600005461D4906F07EFF1C494860E17BA27BCB
:101B700041EA022006F016FF0546174906F072FFFB
:101B800016498860617C227C41EA022006F00AFF47
:101B90000546114906F066FF10498867E17CA27C82
:101BA00041EA022006F0FEFE05460B4906F05AFF08
:101BB0000A49C867617D227D41EA022006F0F2FEF3
:101BC0000546054906F04EFF0449C1F88000A17D95
:101BD000A078FFF7ABFD70BD6F12833A240300209D
:101BE00070B504466179227941EA022006F0DAFEF6
:101BF0000546394906F036FF3849C1F8F000E17969
:101C0000A27941EA022006F0CDFE0546324906F0EF
:101C100029FF3249C1F8F400617A227A41EA0220B0
:101C200006F0C0FE05462C4906F01CFF2B49C1F802
:101C3000F800E17AA27A41EA022006F0B3FE0546F6
:101C4000254906F00FFF2549C1F8B400617B227BCE
:101C500041EA022006F0A6FE05461F4906F002FFF3
:101C60001E49C1F8B800E17BA27B41EA022006F0E0
:101C700099FE0546184906F0F5FE1849C1F8BC0062
:101C8000617C227C41EA022006F08CFE0546124966
:101C900006F0E8FE1149C1F82C01E17CA27C41EA82
:101CA000022006F07FFE05460B4906F0DBFE0B49DD
:101CB000C1F83001617D227D41EA022006F072FE0A
:101CC0000546054906F0CEFE0449C1F83401A17D60
:101CD000A078FFF72BFD70BD6F12833A240300201C
:101CE00010B50446A17DA078FFF720FD10BD10B50A
:101CF0000446A17DA078FFF719FD10BD10B504467C
:101D0000A17DA078FFF712FD10BD10B50446A17D9E
:101D1000A078FFF70BFD10BD10B5FF2000F019F8FB
:101D20000446552C01D1002010BD5521FF2000F0A4
:101D30005AF8FF2000F00DF80446552C01D1002080
:101D4000F2E70120F0E710B500F06AFFFFF7E4FFCB
:101D500010BD70B50446002601F016F82546E117BF
:101D600004EB11610912A02202EB4101C8B200F09C
:101D7000D7FF01F055F8E11704EB11610912A4EB4C
:101D80000121C8B200F0CCFF01F04AF800F0FCFFDE
:101D9000A12000F0C5FF01F043F8002000F088FF0B
:101DA000064601F017F8304670BD38B504462046A7
:101DB000621C94B2FFF7CDFF8DF800002046621C34
:101DC00094B2FFF7C6FF8DF801002046621C94B262
:101DD000FFF7BFFF8DF802002046FFF7BAFF8DF82E
:101DE0000300009838BD70B504460E4600F0CCFFE5
:101DF0002546E11704EB11610912A02202EB410113
:101E0000C8B200F08DFF01F00BF8E11704EB11618F
:101E10000912A4EB0121C8B200F082FF01F000F822
:101E2000304600F07DFF00F0FBFF00F0D3FF0A20FA
:101E300004F024F970BD13B504469DF80410204643
:101E4000631C9CB2FFF7CFFF9DF805102046631C72
:101E50009CB2FFF7C8FF9DF806102046631C9CB299
:101E6000FFF7C1FF9DF807102046FFF7BCFF1CBD20
:101E700000BFFEE700BF00BF7047000010B586B08E
:101E80000446012C40D12248D0F880002049C96F77
:101E90001F4A926F1E4B9B68CDE90232CDE90410B8
:101EA0001B4840681A490968CDE900101848436C7E
:101EB000026CC16B0120FFF771FC022004F0DEF818
:101EC0001348D0F83411D0F83021D0F82C01104B41
:101ED000D3F8BC30CDE90230CDE904210C48D0F86C
:101EE000B8000B49D1F8B410CDE900100848D0F87B
:101EF000F830D0F8F420D0F8F0100220FFF74EFCB4
:101F0000022004F0BBF800BF00BF06B010BD000007
:101F1000240300202DE9F05F06460F469146002479
:101F20004AE0601C05B243E004EB440207EBC20246
:101F300052F8241004EB440207EBC20252F82500C9
:101F400006F0FEFB82460021504606F0BBFC2DD079
:101F500056F82410504606F085FD834656F82510A5
:101F600006F07DFE46F82500A8461CE008EB480078
:101F700007EBC00050F82410504606F073FD83466E
:101F800008EB480007EBC00050F82510584606F053
:101F900066FE08EB480107EBC10141F8250008F196
:101FA00001000FFA80F8B8F1060FDFDB681C05B2FC
:101FB000062DB9DB601C04B2062CB2DB052434E02C
:101FC00004EB440207EBC20252F8241056F8240036
:101FD00006F0B6FB46F824004FF07E5004EB4401B7
:101FE00007EBC10141F8240000251AE004EB44008E
:101FF00007EBC00050F825A056F82410504606F014
:1020000031FD834656F8251006F029FE46F82500D6
:10201000002004EB440107EBC10141F82500681CD6
:1020200005B2A542E2DB601E04B2002CC8DA00242F
:1020300005E056F8240049F82400601C04B2062C80
:10204000F7DBBDE8F09F30B502460B46002011E0FB
:10205000002442F82040002108E0002400EB400565
:1020600003EBC50545F821404C1C21B20629F4DBE1
:10207000441C20B20628EBDB30BD2DE9F04F8BB0BD
:1020800006460F4690469A464FF07E50099000242F
:102090003DE0E01C58F8209058F824105AF824002D
:1020A00006F0E8FD0A904946484606F0DBFC019040
:1020B0000A9906F0D7FC02900A9906F0D3FC8346F1
:1020C000099906F0CCFD099049464FF0804006F092
:1020D000C9FC4946029006F0C5FC83460A9906F001
:1020E000C1FC03A941F8240049464FF0404006F0E6
:1020F000B9FC02900A9906F0B5FC83460A9906F0ED
:10210000B1FCE11C03AA42F82100601C04B2032CBC
:10211000BFDB00242BE003A951F82400099906F045
:10212000A1FC834656F8241006F09CFA46F82400D9
:10213000002518E003AA52F8251052F8240006F0F2
:1021400091FC834604EB440007EBC00050F82510D7
:10215000584606F087FA04EB440107EBC10141F849
:102160002500681C05B2062DE4DB601C04B2062CB9
:10217000D1DB0BB0BDE8F08F2DE9F04FC5B00746BD
:102180000E4614464FF00008DFF83C928F4844900A
:10219000002041904290439018213BA8FEF75AF945
:1021A000182135A8FEF756F918212FA8FEF752F985
:1021B00090210BA8FEF74EF901200A9000203D90D7
:1021C0003C903B90824840903F903E9090E008F1D8
:1021D00001000FFA80F80BA92FA8FFF734FF0025A4
:1021E00018E005EB450057F82000419005EB45004D
:1021F00007EB80004068429005EB450007EB80004C
:102200008068439041AB3BAA0BA92FA8FFF735FF8D
:10221000681C05B2062DE4DB35AA0BA92FA8FFF731
:1022200079FE4099084606F01DFC82463A99084618
:1022300006F018FC8346514606F082FA09903F9951
:10224000084606F00FFC83463999084606F00AFC5A
:102250005946069006F074FA82463E99084606F002
:1022600001FC05903899084606F0FCFB049005999E
:1022700006F066FA06903799084606F0F3FB0590DB
:102280003699084606F0EEFB03903599084606F0AD
:10229000E9FB01903599084606F0E4FB00900199AE
:1022A00006F0E0F90290039906F0DCF90490059934
:1022B00006F0D8F98346069906F0D4F951460790FE
:1022C00006F0D0F90890099906F0CCF94490002561
:1022D0000CE035AA52F825103BAA52F8250006F06A
:1022E000C9FC3BA941F82500681C05B2062DF0DBAE
:1022F000B8F1140F05DA4946449806F07FFCFFF464
:1023000066AF34493E9806F0ADFB206031493F98F6
:1023100006F0A8FB60602F49409806F0A3FBA06080
:1023200021683B9806F09EFB306061683C9806F09F
:1023300099FB7060A1683D9806F094FBB0604FF087
:102340007E51206806F096FC20F0004A2249504653
:1023500006F054FC17D34FF07E51606806F08AFCFB
:1023600020F0004A1C49504606F048FC0BD34FF0C1
:102370007E51A06806F07EFC20F0004A16495046C7
:1023800006F03CFC01D200200A90306820F0004AA0
:102390001249504606F032FC0FD3706820F0004A14
:1023A0000E49504606F02AFC07D3B06820F0004AD8
:1023B0000A49504606F022FC01D200200A900A98F1
:1023C00045B0BDE8F08F00005F7089300000C84262
:1023D0007FD6D03D0AE81C41CDCC4C3E0000604089
:1023E0001948007D012804D002280FD0032827D1E6
:1023F00019E0154880681549C860134841681348BA
:10240000816411480088124908801AE00E488068EB
:102410000E49C8600C4841680C4881640A4800882D
:102420000B4908800DE0084880680849C8600648E4
:10243000416806488164044800880549088000E036
:1024400000BF00BF704700003802002024030020B6
:10245000A000002010B5044805F05AFA03F094F9E2
:1024600004F002F910BD0000140300202DE9F04132
:102470006948007800F0030001287CD16748008893
:1024800014287ADD6649088806F0A4FA07466548EC
:10249000D0F8E810384606F0E5F806466148D0F86E
:1024A0002411304606F0E6FB05465E48D0F8601180
:1024B000284606F0DFFB044606F054FA5A49088025
:1024C0005749088806F086FA07465648D0F8E810BB
:1024D000384606F0C7F806465248D0F82411304670
:1024E00006F0C0F805464F48D0F86011284606F0BF
:1024F000B9F8044606F036FA4C490880484908887D
:1025000006F068FA07464748D0F8E810384606F063
:10251000B1FB06464348D0F82411304606F0A2F835
:1025200005464048D0F86011284606F0A3FB044653
:1025300006F018FA3E4908803949088806F04AFA38
:1025400007463848D0F8E810384606F093FB0646B0
:102550003448D0F82411304606F08CFB054631484B
:10256000D0F86011284606F07DF8044606F0FAF926
:102570003049088027E031E0FFE7284800882A49F1
:10258000088026480088294908802448008828496E
:1025900008802248008827490880224803F0FAFC76
:1025A0002048B43003F0F6FC1E483C3003F0F2FC47
:1025B0001C48F03003F0EEFC1A48783003F0EAFCD7
:1025C0001D4803F0E7FC1B48038819480288174898
:1025D00001881548008800F0E9FF1BE000231A4637
:1025E0001946184600F0E2FF0E4803F0D3FC1248EB
:1025F000783803F0CFFC0B483C3003F0CBFC0E489E
:102600003C3803F0C7FC0748783003F0C3FC0A48A5
:1026100003F0C0FCBDE8F081A800002038020020D3
:10262000A0000020240300206000002062000020A1
:1026300064000020660000205004002010B54FF414
:10264000001000F0E9F878B10021084800F02EF8F9
:102650002021064800F054F94FF4801000F018F8DB
:102660000121024800F022F810BD00006C00024079
:1026700010B54FF0007000F0CFF830B100200349E2
:1026800008704FF0807000F003F810BD5500002076
:1026900000F0805111B10349086001E0024948602F
:1026A00070470000040402400000024021B10268AB
:1026B00042F00102026004E002684FF6FE731A4025
:1026C0000260704701684FF6FE7211400160002100
:1026D000016041608160C1604B49884208D14A492C
:1026E0000839496841F00F01474A083A51608AE0C9
:1026F00045491431884208D143490839496841F0B5
:10270000F001414A083A51607DE03F492831884252
:1027100008D13D490839496841F470613A4A083A9C
:10272000516070E038493C31884208D13649083957
:10273000496841F47041344A083A516063E03249D3
:102740005031884208D130490839496841F4702134
:102750002D4A083A516056E02B496431884208D12D
:1027600029490839496841F47001274A083A5160FB
:1027700049E025497831884208D123490839496818
:1027800041F07061204A083A51603CE01F4988429C
:1027900006D1011F096841F00F01021F116032E0EC
:1027A0001A491431884208D11849091F096841F0B3
:1027B000F001164A121F116025E0144928318842A1
:1027C00008D11249091F096841F470610F4A121FAC
:1027D000116018E00D493C31884208D10B49091FAE
:1027E000096841F47041094A121F11600BE0074962
:1027F0005031884207D10549091F096841F4702109
:10280000024A121F1160704708000240080402408B
:102810000146486880B2704701460020002201F05E
:10282000805313B1054B1A6801E0054B1A6802EAA0
:1028300001030BB1012000E00020704700040240BA
:10284000000002401AB103680B43036002E0036812
:102850008B430360704710B50022026847F6F0739F
:102860009A430C6A8B6823430C6923434C692343C6
:102870008C692343CC6923434C6A23438C6A2343EA
:102880001A430260CB6843600B6883604B68C36087
:1028900010BD000070B504460E46002505E0207806
:1028A00005494855641C681CC5B2B542F7DB314682
:1028B000024800F005F870BDE001002080000240F1
:1028C00070B505460E46002400E0641C0B480078F5
:1028D000012803D14EF660208442F6D30021284619
:1028E000FFF7E4FE3146284600F00AF801200349CC
:1028F000087001212846FFF7D9FE70BD5500002061
:102900004160704770472DE9F05F04460D4616465A
:102910001F46DDE90CABDDE90A892046FFF745FAE1
:102920002860211D88B2FFF740FA306004F10801E9
:1029300088B2FFF73AFA386004F10C0188B2FFF769
:1029400034FAC8F8000004F1100188B2FFF72DFA3C
:10295000C9F8000004F1140188B2FFF726FACAF89A
:10296000000004F1180188B2FFF71FFACBF800004D
:1029700004F11C0188B2FFF718FA0E99086004F1FF
:10298000200188B2FFF711FA0F990860BDE8F09FA7
:102990002DE9F04704460F4615461E46DDE9099A23
:1029A000DDF8208039462046FFF745FA211D88B220
:1029B0002946FFF740FA04F1080188B23146FFF7D3
:1029C0003AFA04F10C0188B24146FFF734FA04F1F7
:1029D000100188B24946FFF72EFA04F1140188B2BB
:1029E0005146FFF728FA0020BDE8F0872DE9F041B5
:1029F00004460F4615461E4639462046FFF71BFA89
:102A0000211D88B22946FFF716FA04F1080188B2A1
:102A10003146FFF710FA0020BDE8F0812DE9F041C2
:102A2000024600250026002000230024002791F8FC
:102A300003C00CF00F0591F803C00CF0100CBCF1B2
:102A4000000F03D091F802C04CEA050591F800C0D0
:102A5000BCF1000F31D0146800202BE04FF0010CC6
:102A60000CFA00F3B1F800C00CEA03069E4220D134
:102A700083004FF00F0C0CFA03F7BC4305FA03FC7C
:102A80004CEA040491F803C0BCF1280F06D14FF0C2
:102A9000010C0CFA00FCC2F814C00AE091F803C063
:102AA000BCF1480F05D14FF0010C0CFA00FCC2F844
:102AB00010C0401C0828D1D31460B1F800C0BCF18C
:102AC000FF0F34DD546800202EE000F1080C4FF0B9
:102AD000010808FA0CF3B1F800C00CEA03069E42A4
:102AE00021D183004FF00F0C0CFA03F7BC4305FA19
:102AF00003FC4CEA040491F803C0BCF1280F05D193
:102B000000F1080C08FA0CF8C2F8148091F803C020
:102B1000BCF1480F07D100F1080C4FF0010808FA8A
:102B20000CF8C2F81080401C0828CED35460BDE8D1
:102B3000F0810000F0B50A460023002400210025A2
:102B400000F00046B6F1004F02D11D4EF16901E0E0
:102B50001B4E7168C0F3034583B200F44016B6F50E
:102B6000401F08D121F07061154E766826F070661E
:102B7000134F7E6012E000F48016B6F5801F06D178
:102B8000032606FA05F4A14341F0706106E0460D04
:102B9000360103FA06F6B14341F0706122B1460DE9
:102BA000360103FA06F6314300F00046B6F1004F55
:102BB00002D1034EF16101E0014E7160F0BD0000F1
:102BC00000000140416170470161704700BFFEE7AE
:102BD00010B500200F4908600F48006820F470000D
:102BE0000D4908600846006840F440100860002065
:102BF0000A49C1F89401022003F066FA0120054950
:102C00000860022003F060FA00200449C1F8900136
:102C100010BD000090812142000C01400080214243
:102C200008B50121082001F09DF93020ADF8000021
:102C300010208DF8030003208DF802006946054836
:102C4000FFF7ECFE0120044908600449C1F8940133
:102C500008BD0000000C014090812142008021420B
:102C600010B500200F4908600F48006820F470007C
:102C70000D4908600846006840F4401008600120D3
:102C80000A49C1F89401022003F01EFA0120054907
:102C90000860022003F018FA00200449C1F89001EE
:102CA00010BD000090812142000C014000802142B3
:102CB00070B5054600241748006820F470001549D7
:102CC00008600846006840F400000860002616E02E
:102CD000002011490860022003F0F6F901200F4995
:102CE000C1F890016006040E0B487C38006808B1FA
:102CF000601CC4B2012003F0E7F9701CC6B2082EB4
:102D0000E6DB15B9FFF7ACFF01E0FFF761FF2046F6
:102D100070BD0000000C01409081214200802142E2
:102D200070B504461548006820F470001349086027
:102D30000846006840F44010086000201049086010
:102D4000002517E0E0090E49091D08606006040E21
:102D5000022003F0B9F901200A49C1F890010220CC
:102D600003F0B2F9002006490860022003F0ACF934
:102D7000681CC5B2082DE5DB70BD0000000C0140E9
:102D8000908121420080214210B50F48006820F454
:102D900070000D4908600846006840F44010086063
:102DA00001200A4908600A49C1F89001042003F093
:102DB0008BF9002005490860042003F085F9002004
:102DC0000349C1F8900110BD000C014094812142DB
:102DD0000080214210B50F48006820F470000D49B2
:102DE00008600846006840F44010086000200A4966
:102DF00008600A49C1F89401042003F065F9012034
:102E0000054908600549C1F89401042003F05CF904
:102E100010BD0000000C0140908121420080214241
:102E200010B500241448006820F4700012490860AE
:102E30000846006840F40000086001200F4908605F
:102E400003F042F901200E49C1F8900103F03CF96A
:102E500007E0601CC4B2FA2C03DDFFF7BBFF0120C2
:102E600010BD0648803800680028F2D10349091FC8
:102E7000086000BFF4E70000000C0140948121428B
:102E80000080214208B50121182001F06BF80320D1
:102E9000ADF8000010208DF8030003208DF802002B
:102EA00069461C48FFF7BAFD03211A48FFF78CFE5C
:102EB0000220ADF8000010208DF8030003208DF8EB
:102EC000020069461448FFF7A9FD02211248FFF7E6
:102ED0007BFE0121042001F045F80121084601F0A4
:102EE00041F801210D48FFF725FE4FF40040ADF8F1
:102EF000000010208DF8030003208DF802006946C1
:102F00000748FFF78BFD4FF400410548FFF75CFED3
:102F100008BD0000000C014000100140000230001C
:102F200000080140884200DA0846904200DD104661
:102F300070472DE9FC4104460D4616466B460622B5
:102F40003B21682000F00CFA0746BFB99DF801004C
:102F50009DF8001040EA012000B220809DF8030097
:102F60009DF8021040EA012000B228809DF805007B
:102F70009DF8041040EA012000B230803846BDE8D8
:102F8000FC812DE9FC4104460D4616466B4606229F
:102F90004321682000F0E4F90746BFB99DF801001D
:102FA0009DF8001040EA012000B220809DF8030047
:102FB0009DF8021040EA012000B228809DF805002B
:102FC0009DF8041040EA012000B230803846BDE888
:102FD000FC81000010B500200F4908600F484068D0
:102FE00020F0F0000D4948600846406840F030008D
:102FF000486000200A49C1F8A401022003F064F8E7
:10300000012005490860022003F05EF80020054910
:10301000C1F8A00110BD0000A00121420010014034
:10302000000022420000214208B50121142000F0D6
:1030300099FF4FF48070ADF8000010208DF8030068
:1030400003208DF8020069460D48FFF7E7FC4FF4B6
:1030500080710B48FFF7B8FD4FF40070ADF8000029
:1030600010208DF8030003208DF802006946054802
:10307000FFF7D4FC4FF400710248FFF7A5FD08BD2F
:10308000000801400010014010B500200F49086001
:103090000F48406820F0F0000D494860084640683D
:1030A00040F03000486001200A49C1F8A401022024
:1030B00003F00AF8012005490860022003F004F833
:1030C00000200549C1F8A00110BD0000A001214267
:1030D00000100140000022420000214270B5054668
:1030E00000241648406820F0F00014494860084663
:1030F000406840F080004860002615E0002010493C
:103100000860022002F0E0FF01200E49C1F8A00192
:103110006006040E0C48006808B1601CC4B20120AF
:1031200002F0D2FF701CC6B2082EE7DB15B9FFF71C
:10313000ABFF01E0FFF74EFF204670BD00100140DD
:10314000A0012142000021422401224270B5044620
:103150001448406820F0F000124948600846406872
:1031600040F03000486000200F490860002516E05C
:10317000E0090E4908606006040E022002F0A4FF78
:1031800001200B49C1F8A001022002F09DFF0020A0
:1031900005490860022002F097FF681CC5B2082D9F
:1031A000E6DB70BD00100140A0012142A4012242D3
:1031B0000000214210B50F48406820F0F0000D4992
:1031C00048600846406840F03000486001200A49E5
:1031D00008600A49C1F8A001042002F075FF002030
:1031E00005490860042002F06FFF00200349C1F880
:1031F000A00110BD00100140A401224200002142A4
:1032000010B50F48406820F0F0000D4948600846AE
:10321000406840F03000486000200A4908600A49D0
:10322000C1F8A401042002F04FFF01200549086005
:103230000549C1F8A401042002F046FF10BD0000BA
:1032400000100140A00121420000224210B50024DC
:103250001348406820F0F000114948600846406873
:1032600040F08000486001200E49086002F02CFF09
:1032700001200D49C1F8A00102F026FF07E0601C03
:10328000C4B2FA2C03DDFFF7BBFF012010BD0548D7
:10329000803800680028F2D10449086000BFF5E7D3
:1032A00000100140A401224200002142A00121425D
:1032B00010B580216B2000F0D7F8642002F0DEFE0C
:1032C00000216B2000F0D0F8032000F08BF80220E2
:1032D00000F080F8322000F0AAF80021382000F039
:1032E000C3F800216A2000F0BFF80021232000F07D
:1032F000BBF88221372000F0B7F8752000F013F8F2
:103300000446682C0BD101216B2000F0ADF80021A0
:103310006C2000F0A9F8322000F089F801E00120CB
:1033200010BD0020FCE770B50446FFF743FFD02036
:10333000FFF70CFFFFF78AFF2046FFF707FFFFF7B5
:1033400085FFFFF737FFD120FFF700FFFFF77EFF74
:103350000020FFF7C3FE0546FFF752FF284670BD69
:103360002DE9F04106460F4614461D46FFF722FFA1
:10337000002141EA4601C8B2FFF7E8FEFFF766FF09
:1033800020B1FFF73DFF0120BDE8F0813846FFF78F
:10339000DDFEFFF75BFFFFF70DFF012101EB4601AB
:1033A000C8B2FFF7D3FEFFF751FF0DE0012C04D1A7
:1033B0000020FFF793FE287003E00120FFF78EFE48
:1033C0002870601EC4B26D1C002CEFD1FFF718FFEF
:1033D0000020D9E710B50446E006010E1C2000F0DD
:1033E00043F810BD10B50446E006010E1B2000F0A6
:1033F0003BF810BD70B504460025BC2C01DB01254F
:1034000010E0622C01DB02250CE02A2C01DB0325F5
:1034100008E0142C01DB042504E00A2C01DB05255F
:1034200000E0062529461A2000F01EF870BD70B590
:103430000446B4F57A7F01DD4FF47A74042C00DA87
:1034400004244FF47A7090FBF4F0401EC5B2294674
:10345000192000F009F80546264604EBD671C1F3A1
:103460004F00FFF7C7FF70BD70B505460C46FFF76C
:10347000A1FED020FFF76AFEFFF7E8FE18B1FFF7C4
:10348000BFFE012070BD2846FFF760FEFFF7DEFE9D
:103490002046FFF75BFEFFF7D9FE18B1FFF7B0FE3D
:1034A0000120EFE7FFF7ACFE0020EBE72DE9F0414C
:1034B00003F0E4FE03F0ECFF3249486A324905F0BC
:1034C000D1FA804605F0A2F8064604F0F3F8044667
:1034D00004F02EFB2D4908602A49486A2A4905F064
:1034E000C1FA804605F092F8064602F057FD044600
:1034F00004F01EFB264908602249886A224905F02B
:10350000B1FA804605F082F8064604F0D3F8044686
:1035100004F00EFB1F4908601A49886A1A4905F031
:10352000A1FA804605F072F8064602F037FD04461F
:1035300004F0FEFA184908601249C86A124905F0F9
:1035400091FA804605F062F8064604F0B3F80446A6
:1035500004F0EEFA114908600A49C86A0A4905F000
:1035600081FA804605F052F8064602F017FD04463F
:1035700004F0DEFA0A4908600A4807C802F0FCFEB7
:10358000BDE8F081B802002035FA8E3C88000020AA
:10359000940000208C000020980000209000002063
:1035A0009C0000204401002000BFFEE72DE9F0410F
:1035B00007460C4615461E464FF47A7200213846DF
:1035C000FFF7B0FC0F4908804FF47A7200212046C3
:1035D000FFF7A8FC0B49091D08804FF47A720021FF
:1035E0002846FFF79FFC0749083108804FF47A729C
:1035F00000213046FFF796FC02490C310880BDE8F7
:10360000F081000034080040704700001CB511A193
:1036100003C9CDE90001102000F0AAFD052269468A
:10362000302000F0FBF805226946102000F076F803
:10363000002406E01DF80400A52800D003E0601C6B
:10364000C4B2052CF6DB00BF052C01D001201CBD47
:103650000020FCE7A5A5A5A5A500000008B501214F
:10366000102000F07FFC10208DF80300C020ADF882
:10367000000003208DF8020069460F48FFF7CEF9DD
:1036800028208DF803004FF48070ADF8000003206F
:103690008DF8020069460848FFF7C0F900F0ECFC1D
:1036A00000F08EF800200549086001200449C1F8A7
:1036B0009801FFF7ABFF08BD001001409C012242BA
:1036C0000000224210B5002011490860052211496E
:1036D0002A2000F0A3F80121212000F0BDF80121EB
:1036E000222000F0B9F82821252000F0B5F8162195
:1036F000312000F0B1F80F21262000F0ADF80F21A5
:10370000202000F0A9F801200349C1F89C0110BD58
:103710009C012242578E0008000022422DE9F04110
:1037200007460D46164600200A490860384600F054
:10373000F5FC8046002405E0FF2000F0EFFC285552
:10374000601CC4B2B442F7DB012002490860404665
:10375000BDE8F0819801224270B504460020074977
:103760000860204600F0DAFCFF2000F0D7FC054698
:1037700001200349C1F89801284670BD98012242F2
:103780000000224270B50446102000F0F1FC072032
:10379000FFF7E2FF05462946272000F05DF805F017
:1037A000400050B1162221466120FFF7B7FFFF21EC
:1037B000E22000F051F8002070BD0120FCE700007D
:1037C00000B585B00021144800F0E6FC0020ADF8FB
:1037D00000004FF48270ADF802000020ADF8040044
:1037E000ADF80600ADF808004FF40070ADF80A001F
:1037F0003820ADF80C000020ADF80E000720ADF821
:1038000010006946044800F0E1FC0121024800F084
:10381000C3FC05B000BD0000003001402DE9F041BF
:1038200007460C46154600200A490860384600F055
:1038300075FC8046002605E014F8010B00F06EFCD4
:10384000701CC6B2AE42F7DB012002490860404658
:10385000BDE8F0819801224270B505460C46002073
:1038600007490860284600F059FC0646204600F04B
:1038700055FC01200349C1F89801304670BD000095
:10388000980122420000224270B5E048FFF77AFF1B
:1038900000286FD1DD48447D1A2C06D02B2C0DD08A
:1038A0003C2C62D04D2C7CD1F2E0D8480078A12885
:1038B00000D086E10020D649C87482E1D348007860
:1038C000B22800D07DE10020D149C874CF484078AB
:1038D000CE49897840EA0120CD490880CB49C97892
:1038E00049B2A1F1320005F05DF8C9494860C74905
:1038F000097949B2A1F1320005F054F880F0004096
:10390000C3498860C149497949B2A1F1320005F043
:1039100049F8BF49C860BD4880790874BB48C07980
:103920004874BA48007A087508884FF47A72002102
:10393000FFF7F8FAB6490880B64A4868B64901F078
:10394000BBF9B3494860B34A8868B34901F0B4F998
:10395000AF498860AF4AC868AF4901F0ADF9AC49DA
:10396000C8600846008848802BE1A8480078C32832
:1039700001D026E126E10020A549C874A34840787B
:10398000A249897840EA0120A14908809F49097924
:103990009E4AD27841EA022005F004F805469F4984
:1039A00000E00DE105F05EF89D49086097498979CE
:1039B000964A527941EA022004F0F4FF05469749FD
:1039C00005F050F8964948609049097A8F4AD279B3
:1039D00041EA022004F0E6FF0546904905F042F86E
:1039E0008F4988608949897A884A527A41EA022057
:1039F00004F0D8FF0546894905F034F88849C863C2
:103A00008249097B814AD27A41EA022004F0CAFF46
:103A10000546824905F026F8814908647B49897B7F
:103A20007A4A527B41EA022004F0BCFF05467B49FA
:103A300005F018F87A4948647449097C734AD27BC6
:103A400041EA022004F0AEFF0546744905F00AF889
:103A5000734988676D49897C6C4A527C41EA02202F
:103A600004F0A0FF05466D4904F0FCFF6C49C867EF
:103A70006649097D654AD27C41EA022004F092FF42
:103A80000546664904F0EEFF6549C1F8800098E0FC
:103A90005E480078D42800D093E000205C49C874C8
:103AA0005A4840785949897840EA012058490880A5
:103AB00056490979554AD27841EA022004F072FF4A
:103AC0000546564904F0CEFF5549C1F8B4004F49A8
:103AD00089794E4A527941EA022004F063FF054693
:103AE0004E4904F0BFFF4E49C1F8B8004749097A72
:103AF000464AD27941EA022004F054FF054647497C
:103B000004F0B0FF4649C1F8BC004049897A3F4AF9
:103B1000527A41EA022004F045FF05463F4904F08D
:103B2000A1FF3F49C1F8F0003849097B374AD27AF2
:103B300041EA022004F036FF0546384904F092FFBE
:103B40003749C1F8F4003149897B304A527B41EA58
:103B5000022004F027FF0546304904F083FF304976
:103B6000C1F8F8002949097C284AD27B41EA0220A1
:103B700004F018FF0546294904F074FF2849C1F8EC
:103B80002C012249897C214A527C41EA022004F01E
:103B900009FF0546214904F065FF2149C1F83001BC
:103BA0001A49097D194AD27C41EA022004F0FAFE42
:103BB00005461A4904F056FF1949C1F8340100E0DE
:103BC00000BF22E01248C07CC82806DA1048C07C3A
:103BD000401C0F49C874002088740D48C07CC82858
:103BE0000AD101200A498874084600880A2803DDA2
:103BF00008460088401E0880054908884FF47A72FC
:103C00000021FFF78FF90249088070BD20020020D3
:103C1000380200200000A0400000A0C06F12833ACC
:103C20002403002070B5002100230F22C47804B3C0
:103C3000154C246804F4E064C4F5E064210AC1F181
:103C40000403CA40447804FA03F184781440214301
:103C500009010E4C0678A155047804F01F050124D3
:103C6000AC4005786D11AD0005F1E025C5F80041C7
:103C700009E0047804F01F050124AC40044D0678E7
:103C8000761145F8264070BD0CED00E000E400E040
:103C900080E100E002490143024A116070470000E0
:103CA0000000FA050CED00E07047000010B58E48EA
:103CB0000068401C8C4908608C48007CA1280FD10A
:103CC0008A48407C1A280BD108460068B0F5167F58
:103CD00005D301208649887000208349086002E1ED
:103CE0008248007CA1287DD18048407C00287CD17E
:103CF0007E4988687F4904F081FE18D27B49486874
:103D00007D4904F07BFF12D2784948687B4904F072
:103D100075FE0CD274480068B0F5167FDFD3012021
:103D200077490870487000206F490860DBE06F49F0
:103D30008868744904F062FF19D26C4948686E497A
:103D400004F05CFF13D2694948686C4904F056FEE0
:103D50000DD265480068B0F5167FC0D302206849CF
:103D600008700120487000205F490860BBE05F498F
:103D70004868644904F042FF17D25C4988685E498C
:103D800004F03CFF11D2594988685C4904F036FEC2
:103D90000BD255480068B0F5967FA0D301205A4950
:103DA00088700020504908609DE05049486851499A
:103DB00004F024FE93D24D4988684F4904F01EFF59
:103DC00012D24A4988684D4904F018FE0CD2464880
:103DD0000068B0F5967F07D306204B498870002015
:103DE000414900E001E008607DE04048007C002897
:103DF00076D13E48407C1A2872D13C48008840F277
:103E0000B631884217DD3949C8683B4904F0F6FEEF
:103E100011D23649C868394904F0F0FD0BD2324856
:103E20000068B0F5967F5ED3042037498870002083
:103E30002D49086057E02D480088322817DA2B49B1
:103E4000C8682D4904F0DAFE11D22849C8682B4908
:103E500004F0D4FD0BD224480068B0F5967F42D31D
:103E600005202949887000201F4908603BE01F4950
:103E7000C868244904F0C2FE15D21C480088B0F579
:103E8000C87F10DD19480088B0F5167F0BDA164898
:103E90000068B0F5967F26D302201B498870002069
:103EA000114908601FE01149C868124904F0A6FDD5
:103EB00019D20E480088B0F5C87F14DD0B48008881
:103EC000B0F5167F0FDA08480068B0F5967F0AD380
:103ED00003200D49887000200349086003E0FFE7D4
:103EE00000200149086010BDAC000020380200200D
:103EF000E4070020000020C2000020C10000204193
:103F0000A800002000002042DC060020014600201E
:103F1000034A506820F44040084350607047000056
:103F20000010024029B1064A52690243044B5A610B
:103F300004E0034A52698243014B5A617047000012
:103F40000010024029B1064AD2690243044BDA61EB
:103F500004E0034AD2698243014BDA6170470000F2
:103F60000010024029B1064A92690243044B9A614B
:103F700004E0034A92698243014B9A617047000052
:103F80000010024029B1064AD2680243044BDA60AD
:103F900004E0034AD2688243014BDA6070470000B4
:103FA0000010024030B500210022002400232D4DD6
:103FB0006D6805F00C0121B1042905D0082923D131
:103FC00005E0294D056022E0274D05601FE0254DE5
:103FD0006D6805F47012234D6D6805F48034022578
:103FE00005EB92421CB9214D554305600BE01D4D78
:103FF0006D6805F400351DB11C4D5543056002E0A8
:10400000194D5543056002E0174D056000BF00BF24
:10401000144D6D6805F0F0010909154D6B5C0568DC
:10402000DD4045600F4D6D6805F4E061090A104DF3
:104030006B5C4568DD4085600A4D6D6805F4605134
:10404000C90A0B4D6B5C4568DD40C560054D6D6868
:1040500005F44041890B074D6B5CC568B5FBF3F572
:10406000056130BD0010024000127A0000093D00D9
:10407000D2000020E200002000B587B0012104201A
:10408000FFF770FF01210803FFF76CFFE020ADF898
:10409000180018208DF81B0003208DF81A0006A9BF
:1040A0001C48FEF7BBFCE0211A48FEF78DFD0121FC
:1040B0000803FFF767FF00214FF48050FFF762FF0E
:1040C0000020ADF804004FF48270ADF80600002027
:1040D000ADF808000220ADF80A000120ADF80C0090
:1040E0004002ADF80E003820ADF810000020ADF809
:1040F00012000720ADF8140001A9074800F066F887
:104100000121054800F048F8FF2000F007F807B04B
:1041100000BD0000000801400030014070B50546B8
:10412000002405E0601CC4B2C82C01DD002070BD75
:1041300002210E4800F03CF80028F3D029460B4835
:1041400000F042F8002405E0601CC4B2C82C01DD78
:104150000020ECE70121054800F02AF80028F3D000
:10416000024800F02EF8C0B2E1E700000030014044
:1041700010B50446074800884FF6C7710840054946
:10418000088008460088204308800121014800F08B
:1041900003F810BD0030014021B1028842F0400216
:1041A000028004E002884FF6BF731A400280704715
:1041B0000246002013890B400BB1012000E00020D3
:1041C00070470146888970478181704710B5002289
:1041D000028802F441520B884C8823438C88234385
:1041E000CC8823430C8923434C8923438C89234364
:1041F000CC8923431A430280838B4FF2FF74234000
:1042000083830B8A038210BD704710B500F002F85B
:1042100010BD00000CB500200190009033480068EC
:1042200040F480303149086000BF3048006800F435
:10423000003000900198401C0190009818B9019836
:10424000B0F5A06FF1D12948006800F4003010B13A
:104250000120009001E0002000900098012843D147
:104260002348006840F010002149086008460068B3
:1042700020F0030008600846006840F00200086073
:104280001A4840681949486008464068486008462E
:10429000406840F4806048600846406820F47C1024
:1042A00048600846406840F4E810486008460068E6
:1042B00040F08070086000BF0C48006800F000709B
:1042C0000028F9D00948406820F0030007494860F9
:1042D0000846406840F00200486000BF034840685C
:1042E00000F00C000828F9D10CBD000000100240BD
:1042F00000200240042808D14FF0E021096941F074
:1043000004014FF0E022116107E04FF0E02109695C
:1043100021F004014FF0E022116170477047000066
:1043200010B51348006840F00100114908600846C4
:104330004068104908400E494860084600680E4928
:1043400008400B4908600846006820F48020086097
:104350000846406820F4FE0048604FF41F00886063
:10436000FFF753FF4FF000600449086010BD0000E4
:10437000001002400000FFF8FFFFF6FE08ED00E02D
:104380001CB52648008800F00100002845D02448CC
:104390000068401C22490860224803F0B9FAFFF780
:1043A00073FA01F05DFF2049204801F043FF1E49E8
:1043B0000C311E4802F090F801F0D0FE1A481C495A
:1043C000426A1C4801F0FEF817491831184801F0FC
:1043D000AFFE1548006A1449C969134CCDE90010B5
:1043E000A36962692169E06802F014FBFFF75EF8D7
:1043F000FDF7F6FFFEF72EF8FEF738F8FFF756FC4C
:1044000002F01CFAFDF70AF90B4803F081FA0348A1
:10441000008820F00100014908801CBD1004004004
:104420006800002050020020E80000202001002049
:10443000380100202C010020600200201FB501215E
:104440000220FFF77FFD0020ADF80A004720ADF8FD
:10445000040041F28730ADF808000020ADF80600F6
:1044600001A90E4800F004FA012211460B4800F0A1
:1044700099F81D208DF8000001208DF80300002020
:104480008DF8010003208DF802006846FFF7CAFB93
:104490000121024800F07AF81FBD0000000400402E
:1044A00000B589B001210420FFF74CFD012108204F
:1044B000FFF758FD4FF47070ADF8200018208DF80C
:1044C000230003208DF8220008A92848FEF7A6FA49
:1044D0004FF470712548FEF775FB0720ADF8140006
:1044E0000020ADF8160040F2E730ADF818000020CB
:1044F000ADF81A0005A91E4800F0BAF96020ADF821
:1045000004000120ADF806000020ADF80C00ADF865
:104510001000ADF80A0001A9154800F04DF801A9F6
:10452000134800F09FF801A9114800F0FBF801A919
:104530000F4800F051F908210D4800F089F80821D2
:104540000B4800F0E1F80821094800F03BF9082188
:10455000074800F07FF90121054800F00BF8012120
:10456000034800F013F809B000BD0000000C014042
:104570000008004021B1028842F08002028004E07D
:1045800002884FF67F731A400280704721B102887B
:1045900042F00102028004E002884FF6FE731A40E6
:1045A000028070471AB183890B43838102E08389BB
:1045B0008B4383817047000070B5002400220023E4
:1045C000058C4FF6FE7635400584028C8388048B7B
:1045D0004FF68F752C40B51E2C400D882C43751E50
:1045E0002A400D892A434D882A43144DA8420BD0F6
:1045F000134DA84208D0134DA84205D0124DA84231
:1046000002D0124DA84213D14FF6F7752A404D89BA
:104610002A434FF6FB752A408D882A434FF6FF65E3
:104620002B404FF6FF552B408D892B43CD892B43D3
:1046300083800483CD888586028470BD002C014070
:104640000034014000400140004401400048014066
:104650000A460021018B4FF6F7731940114301837D
:104660007047000070B5002400220023058C4FF62F
:10467000EF7635400584028C8388048B48F6FF75FD
:104680002C404FF6FF452C400D884FF6FF7606EA8A
:1046900005252C434FF6DF752A400D8906EA0515DE
:1046A0002A434D8806EA05152A43154DA84202D033
:1046B000144DA8421DD14FF67F752A404D894FF603
:1046C000FF7606EA05152A434FF6BF752A408D8806
:1046D00006EA05152A434FF6FF352B404FF2FF75CA
:1046E0002B408D8906EA85052B43CD8906EA850591
:1046F0002B4383800483CD880587028470BD00002E
:10470000002C0140003401400A460021018B4FF289
:10471000FF7319404FF6FF7303EA02231943018325
:104720007047000070B5002400220023058C4FF66E
:10473000FF6635400584028C8388848B4FF68F7525
:104740002C404FF6FC752C400D882C434FF6FF553E
:104750002A400D894FF6FF7606EA05252A434D8843
:1047600006EA05252A43154DA84202D0144DA84259
:104770001DD14FF2FF752A404D894FF6FF7606EAAC
:1047800005252A434FF6FF352A408D8806EA052580
:104790002A434EF6FF752B404DF6FF752B408D8951
:1047A00006EA05152B43CD8906EA05152B438380C0
:1047B0008483CD888587028470BD0000002C014071
:1047C000003401400A460021818B4FF6F7731940EF
:1047D000114381837047000070B50022002300243C
:1047E000058C4EF6FF7635400584038C8488828BD9
:1047F00048F6FF752A404FF6FF452A400D884FF6D0
:10480000FF7606EA05252A434DF6FF752B400D89F4
:1048100006EA05352B434D8806EA05352B430B4D3B
:10482000A84202D00A4DA84208D14BF6FF752C4091
:104830008D894FF6FF7606EA85152C4384808283A6
:10484000CD88A0F84050038470BD0000002C0140CA
:10485000003401400A460021818B4FF2FF7319405A
:104860004FF6FF7303EA0223194381837047000068
:10487000002202881D4B98420ED01D4B98420BD04F
:10488000B0F1804F08D01B4B984205D01A4B98428C
:1048900002D01A4B984204D14FF68F731A404B88BE
:1048A0001A43174B984207D0164B984204D04FF644
:1048B000FF431A40CB881A4302808B8883850B887C
:1048C00003850A4B98420BD0094B984208D00E4BF7
:1048D000984205D00D4B984202D00D4B984201D121
:1048E0000B7A03860123838270470000002C01406D
:1048F000003401400004004000080040000C00406B
:1049000000100040001400400040014000440140FD
:104910000048014010B540F225511D4800F0D3F881
:1049200010B31B4800F08AF9C4B21A48008800F49A
:104930000040C8B91748008800F4804060B10A2CD4
:1049400003D000201349088020E01248008840F47A
:1049500000401049088019E00D2C06D10D48008850
:1049600040F480400B49088010E00A480088C0F3FA
:104970000D0009490C5407480088401C054908806F
:1049800008460088C72801DD0020088010BD00000F
:1049900000380140D00000203C08002010B540F253
:1049A00024410F4800F08FF8C8B101200D4908706C
:1049B00000210D48FDF77AFE09480488001D04888F
:1049C0000948FDF725FFC0F1200008490880202193
:1049D0000548FDF795FF01210348FDF767FE10BD6F
:1049E00000440040540000206C00024056000020AB
:1049F00010B586B0044601210420FFF7B3FA012167
:104A00004804FFF79FFA18208DF817000420ADF82E
:104A1000140001208DF8160005A91E48FDF7FEFFC1
:104A200004208DF817000820ADF8140001208DF83F
:104A3000160005A91748FDF7F1FF01940020ADF815
:104A400010000C20ADF80E000020ADF80C00ADF801
:104A50000A00ADF8080001A90F4800F083F8012111
:104A60000D4800F01BF8012240F224410A4800F0F2
:104A700054F826208DF8000001208DF80300032053
:104A80008DF8010000208DF802006846FFF7CAF893
:104A900006B010BD000801400044004021B18289E9
:104AA00042F40052828104E082894DF6FF731A407D
:104AB000828170471AB1838A0B43838202E0838A22
:104AC0008B438382704770B5024600240023002583
:104AD000002040F66A16B14200D100BFC1F3421572
:104AE00001F01F03012606FA03F3012D02D1968976
:104AF000334006E0022D02D1168A334001E0968A47
:104B000033400C12012606FA04F41688344013B11F
:104B10000CB1012000E0002070BDF0B50346002478
:104B200000260025002040F66A17B94200D100BFD8
:104B30001846C1F3421401F01F06012707FA06F5D3
:104B4000012C01D10C3004E0022C01D1103000E026
:104B500014301AB107682F43076002E00768AF43BB
:104B60000760F0BD2DE9F04786B005460E460024EB
:104B7000A24600BFA1460027B08900B100BF2F4662
:104B80002C8A4CF6FF700440F08804432C82AC89D8
:104B90004EF6F3100440B088318908437189084308
:104BA0000443AC81AC8A4FF6FF400440B089044313
:104BB000AC8201A8FFF7F6F91F48874202D1DDF861
:104BC00010A001E0DDF80CA0A88900F4004040B17D
:104BD0000AEBCA0000EB0A1031684900B0FBF1F89B
:104BE00007E00AEBCA0000EB0A1031688900B0FB4D
:104BF000F1F86420B8FBF0F004012009642101FB06
:104C00001089A88900F4004040B1322000EBC900AF
:104C1000B0FBF1F000F00700044308E0322000EBA5
:104C200009106421B0FBF1F000F00F0004432C8167
:104C300006B0BDE8F08700000038014001468888D2
:104C4000C0F30800704700BFFEE700002DE9F04107
:104C500000241EE01449088803F0BCFE8046134976
:104C600003F000FF07464FF0804103F0FBFE0646CD
:104C70004FF08B4103F064FD05460D48016828465E
:104C800003F0F0FC0A490860052001F0F7F9601C08
:104C9000C4B2322CDEDB07490548006803F050FD42
:104CA00003490860BDE8F08158000020CDCC6C407D
:104CB0005C0000200000484270B505460E461446D0
:104CC0003146284603F09AFF05D22146284603F0D4
:104CD00095FE00D20025284670BD490050EAC1204B
:104CE00018BF04204A0D18BF40F0010040F2FF72C7
:104CF000B2EB515F08BF40F00200012808BF052059
:104D0000704700002DE9F74F144694B00021C4E924
:104D100002111599079121F00045C9498D4206DC21
:104D20001599C4E9000117B00020BDE8F08FC5490E
:104D3000DFF814A3A9423CDD0799C44E0029C44FF3
:104D4000C44A1599534619DD03F076FB554506D044
:104D5000C14AC24B03F070FBC4E900010AE04FF006
:104D6000D352BE4B03F068FB32463B4603F064FB74
:104D7000C4E9000117B00120BDE8F08F02F00AFF7E
:104D8000554506D0B44AB54B02F004FFC4E9000112
:104D90000AE04FF0D352B14B02F0FCFE32463B46E4
:104DA00002F0F8FEC4E9000117B04FF0FF30BDE893
:104DB000F08FAB49A942159978DB21F00041834679
:104DC0008846A84AA84B03F047F90022A74B02F0F7
:104DD000E1FE03F0E7F8099003F013F906460F46E9
:104DE0009C4A534603F038F943465A4603F032FAD8
:104DF00080468A46984A994B3046394603F02CF94A
:104E00002A0D01250B924246534603F023FA032D47
:104E1000C4E9000139D00B98C1F30A51401A05EBDF
:104E200045111139814230DA9148C346784400EB8C
:104E30000510CDF80CA00C90D0E90023304639467F
:104E400003F00AF902460B4604910690584603996E
:104E500003F0F2FA80468A4602460B46584603990A
:104E600003F0EAFA049B069A03F0E6FA83460C98EC
:104E700003913946D0E90223304603F0EDF85A4653
:104E8000039B03F0D9FA6D1CBDE707980028A2BF69
:104E9000099817B0BDE8F08F616881F0004161604A
:104EA000099817B04042BDE8F08FFFE78446159897
:104EB000C1F31301C0F30A50A0F2F5304FEA6018B5
:104EC00000F01F06C6F12000139000200690079006
:104ED00041F4801E05206D4676B1664A08EB00015C
:104EE0007A4452F8213002EB8101B3404A681399A9
:104EF00022FA01F1194305E05F4908EB0002794409
:104F000051F82210A1FB0E27A1FB0C131A449A4260
:104F100034BF0123002303EB070A05EB8003D3E929
:104F200001B70F448F4234BF0121002193448B44C9
:104F300011B1934502D903E0934501D2012100E06C
:104F40000021C3E901B7514445F82010011EA0F12A
:104F50000100C1DC0298059F00F10050800F129003
:104F60000298DDE90356800003F04BF8834628469B
:104F70000D9103F05DF86FF01D0203F024FFCDE901
:104F80000E01304603F054F86FF03D0203F01BFFB2
:104F900080468A46384603F04BF86FF05D0203F016
:104FA00012FF074642465346119102F0F3FDDDE938
:104FB0000E2302F0EFFD5A460D9B02F0EBFD00259B
:104FC0000E465A4628460D9B03F036FADDE90E23BD
:104FD00003F032FA4246534603F02EFA3A46119B4A
:104FE00003F038F9DFF898A0244A534603F034F868
:104FF00007468846234A244B3146284603F02CF8BE
:105000003A46434602F0C6FD074688464FF0A8429E
:1050100053463146284603F01FF83A46434602F00D
:10502000B9FD159A12F0004F04D0129A81F0004198
:1050300052421292C4E90001129817B0BDE8F08FF5
:10504000FB21E93F7CD90240FB21F93F7370032E1D
:105050008A19A33B000040543163621A61B4D03D09
:10506000FB21394183C8C96D305FE43F0000E03F58
:10507000B84200003442000016420000182D44548B
:10508000FB21F93D3326A611460B113C2DE9FF4DBE
:1050900021F0004807460C46B8F1795F08DA02F0C3
:1050A00081FF002801BF0020324904B0BDE8F08D27
:1050B0003A4623461046194602F0CEFF0546024600
:1050C0002D480E460B460621784400F05DF82A462E
:1050D000334602F0C1FFDDE9022382468B463846A3
:1050E000214602F0B9FF04460F4652465B46284669
:1050F000314602F0B1FF22463B4603F09DF90746D8
:105100008A464FF0FF322846314603F05CFE1B4AC8
:1051100090450ADA3A46534603F08EF904B000226D
:10512000BDE8F04D134B03F095B8154A4245A8BFB2
:10513000A8F500154FF00004B8BF124D22462B46CB
:1051400003F07AF90646884622462B460020094994
:1051500003F072F904460D463A465346304641463E
:1051600003F06AF904B022462B46BDE8F04D03F087
:1051700071B800000000F03FE43F00003333D33F3C
:105180000000E93F0000D23F2DE9F0414F1E00EB47
:10519000C7010446D1E9000115461E4637F0060254
:1051A0000DD02A46334602F057FF7F1E04EBC7039B
:1051B000D3E9002302F0EEFC37F00602F1D1022F12
:1051C00025D0042F13D0062F18BFBDE8F0812A4642
:1051D000334602F041FFD4E90A2302F0DBFC2A4601
:1051E000334602F039FFD4E9082302F0D3FC2A4603
:1051F000334602F031FFD4E9062302F0CBFC2A4605
:10520000334602F029FFD4E9042302F0C3FC2A4606
:10521000334602F021FFD4E9022302F0BBFC2A4608
:10522000334602F019FFD4E90023BDE8F04102F053
:10523000B1BC00002DE9FF4D054621F0004084B0CF
:105240000C46B0F1795F0BDA2846FFF746FD0428DB
:1052500008BF00F071F8284608B02146BDE8F08D7F
:105260002A460B46104602F0F7FE06460F462A462F
:10527000234602F0F1FE804626488A4632463B46E7
:1052800005217844FFF780FF83461098029160B3B0
:10529000214A224B4046514602F0DEFECDE9000194
:1052A0005A4640465146029B02F0D6FE8246884648
:1052B000DDE906014FF0FF3203F085FD524643461B
:1052C00003F0BAF832463B4602F0C6FEDDE906239B
:1052D00003F0B2F8DDE9002303F0AEF808B02A4687
:1052E0002346BDE8F04D02F0B5BF0B465A463046A6
:1052F000394602F0B1FE084A084B02F04BFC424628
:10530000534602F0A9FE08B02A462346BDE8F04DF8
:1053100002F040BC2A3F0000495555555555C5BFC0
:10532000012203F050BD02F035BC002213461046A6
:10533000114602F0DFBC0000024A0020110703F012
:1053400042BD000001FDFFFF30380A2801D20120D4
:105350007047002070470A6802604A6842608A68A5
:105360008260704700BF70472DE9FF47824684483E
:10537000807800287DD08248406832283AD281491E
:10538000DAF8000003F06EFB05464FF08B4103F0A6
:10539000D7F904467A484169204603F063F9784911
:1053A00048617849DAF8040003F05CFB05464FF0E9
:1053B0008B4103F0C5F9044671488169204603F02A
:1053C00051F96F4988616F49DAF8080003F04AFB28
:1053D00005464FF08B4103F0B3F904466848C169B4
:1053E000204603F03FF96649C86108464068401C02
:1053F000486069E00020624948604869624903F0FA
:105400009FF95F49897801EB41025D49203141F8FC
:105410002200203988695C4903F092F9584989785B
:1054200001EB41025649203101EB820148605449A9
:10543000C869554903F084F95149897801EB410263
:105440004F49203101EB820188604D49897801EB99
:1054500041024B49203101EB8201886803F0D6F804
:1054600004460D464649897801EB41024449203102
:1054700000E083E001EB8201486803F0C7F80646CC
:105480000F463F49897801EB41023D49203151F8EF
:10549000220003F0BBF880460B463948CDE900678F
:1054A000CDE902458178424638A0FAF7C3FE0021D3
:1054B0003348143002F0FAF801213148827809307B
:1054C000815400202E4988702D48807A2C49C97A51
:1054D00008402B49097B08402949497B0840284955
:1054E000897B08402649C97B0840002846D0012016
:1054F0002349087400240FE0621C02EB4203204A97
:10550000203202EB830104EB44022D4B03EB8200BB
:10551000FFF721FF601CC4B2062CEDDB184A98325D
:10552000A2F118012648FCF727FE15490872084623
:10553000007A012814D10846D0F8A010D0F89C00B9
:105540000F4AD2F89820CDE9002002910C48D0F8FB
:105550008830D0F88420D0F880100020FDF718FAA9
:10556000012005E00022064909310A54411CC8B255
:105570000728F7DB0120024981F8A400BDE8FF8776
:10558000DC0600200AE81C41000048425F616363BA
:105590005F63616C2E73696E676C65203D202564C6
:1055A0002020202025302E32662020202025302E5D
:1055B00032662020202025302E32660D0A000000A1
:1055C0009C0700202DE9F04105460C46164621684F
:1055D000286803F04FFB8046314603F043FA074644
:1055E000216803F03FF820606168686803F042FBBF
:1055F0008046314603F036FA0746616803F032F818
:105600006060A168A86803F035FB8046314603F06E
:1056100029FA0746A16803F025F8A060BDE8F081EB
:1056200000B585B001214802FEF79CFC4FF4004014
:10563000FEF76CFC1D48FBF715FF002000908DF86D
:10564000040001208DF805004FF460200290002036
:10565000039001208DF8100069461448FBF744FFC1
:1056600001211248FBF7E7FE01211048FBF7EEFE8F
:105670000E48FBF7BDFF00BF0C48FBF72BFF0028CF
:10568000FAD10A48FBF7C4FF00BF0848FBF718FF30
:105690000028FAD1072301220A210448FBF74CFF16
:1056A00001210248FBF7A9FF05B000BD002401401D
:1056B00000B58BB001210846FEF734FC1148FDF718
:1056C00001F801200390002002900A902020089009
:1056D000C00109900C4801904FF480600790802031
:1056E00005900A48009080150690002004906946B5
:1056F0000448FDF7B0F801210248FCF7D7FF0BB0D2
:1057000000BD000008000240580000204C24014069
:1057100008B501211020FEF725FC0120ADF800009E
:1057200000208DF8030069460148FDF777F908BDB0
:105730000010014010B5FFF7EBFFFFF771FFFFF717
:10574000B7FF10BD10B500210D4801F059FC012133
:105750000B483C3001F054FC02210948783001F03C
:105760004FFC03210648B43001F04AFC04210448F0
:10577000F03001F045FC0521024801F041FC10BD6C
:1057800024030020500400202DE9F0413948816AAB
:105790003948C1643949C86802F038FF0746384AB9
:1057A000384B02F059FC054602F0C2F90446214686
:1057B00031483C3001F0C8FB2E48406A2E49086150
:1057C0002E49C86802F022FF07462D4A2D4B02F0F1
:1057D00043FC054602F0ACF904462146264801F098
:1057E000B3FB29480088B0F5967F05DA2648008883
:1057F000401C254908803AE02449C868002103F08C
:1058000061F828D11C49D1F88400002103F05AF82E
:1058100004D11848C16A1848C0F884101548C16AF4
:105820001548C0F888101549C86802F0EFFE074611
:10583000134A144B02F010FC054602F079F90446B5
:1058400021460D48783001F07FFB0B48D0F8AC10B2
:10585000C0F838110BE000210748C0F884100B494C
:10586000C8680B4903F0FEF80349C1F83801BDE8E8
:10587000F0810000B802002024030020140300205F
:10588000FCA9F1D24D62503FA40000203802002054
:105890000000A0402DE9F04D8D4F21F0004A86B068
:1058A00005460C46BA452ADBAAEB070028430AD076
:1058B0008848824501DC1AD1CDB106B02846BDE842
:1058C000F04DFFF72DBD844A844B284602F0C4FBFF
:1058D00007460E46824A834B2846214602F0BCFB0F
:1058E00006B03A463346BDE8F04D02F053B9012008
:1058F000FAF7E0FD06B0BDE8F04DFFF716BD7A48B7
:10590000824542DABAF1795F0BDA2846FFF7E5F90A
:10591000042808BFFFF710FD284606B02146BDE861
:10592000F08D2A460B46104602F096FB834602464F
:105930006E480E460B4606217844FFF725FC5A4672
:10594000334602F089FB804669488A465A46334608
:1059500004217844FFF718FC5A46334602F07CFBDA
:1059600000223B4602F016F902460B4640465146DD
:1059700002F0C0F92A46234602F06EFB06B02A4622
:105980002346BDE8F04D02F005B9284624F0004159
:1059900000223D463B4602F05DFC4FF0FF3203F033
:1059A00012FA0646024653480F460B460621784433
:1059B000FFF7EAFB32463B4602F04EFBCDE9000121
:1059C0004D4832463B4604217844FFF7DDFB324622
:1059D0003B4602F041FB00222B4602F0DBF88346F7
:1059E00002913046394601F0B5FE804643480D46E7
:1059F000504517DCDDE900015A46029B02F07AF9B6
:105A000042462B4602F028FB42462B4602F0C2F8E3
:105A1000012203F0D8F9304A304B02F00DFD304A34
:105A2000304B4CE04FF0000A52460B46404602F025
:105A3000B1F8CDE9031052462B461046194602F044
:105A40000BFB32463B4602F005FCDDE9033202F077
:105A500051F906460F46DDE900015A46029B02F065
:105A600049F98346009101223046394603F0ABF9EB
:105A7000194A1A4B02F0EEFB06460F460122404639
:105A8000294603F0A0F95A46009B02F0E5FA324697
:105A90003B4602F0D1FC06460F46012250462946FD
:105AA00003F091F90E4DDFF858802A46434602F084
:105AB000D1FB32463B4602F0CDFB2A46434602F07C
:105AC000C9FB002CD8BF81F0004106B0BDE8F08DC5
:105AD0000000F03F0000F07F075C143326A6913CE5
